:020000040800F2
:1000000000000120C5020008CB020008CF02000852
:1000100041030008450300088D03000800000000AC
:10002000000000000000000000000000D5030008F0
:10003000D903000800000000DD030008E103000808
:10004000F1030008F1030008F1030008F1030008C0
:10005000F1030008F1030008F1030008F1030008B0
:10006000F1030008F1030008F1030008F1030008A0
:10007000F1030008F1030008F1030008F103000890
:10008000F1030008F1030008F1030008000000007C
:10009000000000000000000000000000F103000864
:1000A000F1030008F1030008F1030008F103000860
:1000B000F1030008F1030008F1030008F103000850
:1000C000F1030008F1030008F1030008F103000840
:1000D000F1030008F1030008F1030008000000002C
:1000E000F1030008F1030008F1030008000000001C
:1000F000000000000000000000000000F103000804
:1001000000000000F1030008F1030008F1030008FB
:1001100000000000000000000000000000000000DF
:10012000F1030008F1030008F1030008F1030008DF
:10013000F1030008000000000000000000000000C3
:10014000000000000000000000000000F1030008B3
:10015000F1030008F1030008F1030008F1030008AF
:10016000F1030008F1030008000000000000000097
:10017000000000000000000000000000000000007F
:1001800000000000F1030008000000000000000073
:10019000F103000800B583B000F046FE384B394A41
:1001A0001360394A1360394900E02146384B9942BF
:1001B0000BD20A684B6801F10C0488689842F4D9A4
:1001C0001168196004330432F8E72E4B1A68314B7A
:1001D0009A4200D0FEE72C4B1A682F4B9A42F9D175
:1001E000274B2E4A13602E4A13602E4B05E0002049
:1001F000106004329342FAD80B462B4A934204D241
:10020000194651F8082B5B68F4E7244B1B6813B9B7
:10021000234B1B6803B1FEE701F098FB694601A878
:1002200000F094FD214C224BE41AA4100025AC42AE
:1002300014DC204C204BE41AA4100025AC4213DC43
:100240000099019801F08AFB05461C4C1C4BE41AEE
:10025000A410002C0EDC284600F04AFD144B53F885
:10026000253098470135E2E7134B53F8253098477E
:100270000135E3E7013C124B53F824309847E8E797
:10028000BABADECA0000002080000020F403000893
:100290000C040008785634123254769884000020FA
:1002A000240100200C0400081C0400081C040008A1
:1002B0001C0400081C0400081C0400081C0400089E
:1002C0001C04000808B5FFF765FF00BEFEE71EF03E
:1002D000040F0CBFEFF30880EFF309807146414A29
:1002E00010472DE9F04182B004468846124B5E6B00
:1002F0009F6B9D6A1B6B13F0020F03D00E4BDB6AE2
:10030000002B0CDB0D4800F033FDCDF800803B46A0
:1003100032462946204600F093FD00BEFEE74BF62C
:10032000AB6100F007FE0028ECD0034B4FF0004219
:10033000DA6202B0BDE8F08100ED00E0B4350008FB
:1003400000BEFEE71EF0040F0CBFEFF30880EFF3D2
:1003500009807146244A10472DE9F04182B00446D5
:100360008846084B5E6B9F6B9D6A074800F000FD56
:10037000CDF800803B4632462946204600F060FD1D
:1003800000BEFEE700ED00E0C43500081EF0040FDB
:100390000CBFEFF30880EFF309807146134A104752
:1003A0002DE9F04182B004468846084B5E6B9F6B96
:1003B0009D6A074800F0DCFCCDF800803B463246E1
:1003C0002946204600F03CFD00BEFEE700ED00E0BF
:1003D000D035000800BEFEE700BEFEE700BEFEE727
:1003E00070470000E302000859030008A103000859
:0403F00000BEFEE766
:1003F400B03600080000002084000020B036000859
:1004040000000010000000108400002028010020DB
:080414000000001000000010C0
:1004200010B50446074B1868074BA3FB0030800942
:1004300000F090F8002221464FF0FF3000F044F821
:10044000002010BD0C000020D34D621008B50B4BEE
:100450001A6842F400721A601A6842F480621A60E4
:100460001A6842F480721A60032000F00FF80F201F
:10047000FFF7D6FF01F056FB002008BD003C02400C
:10048000014B1868704700BF1801002010B50446E2
:10049000C31E042B0FD80A4AD36823F4E0631B045D
:1004A0001B0C240204F4E064234343F0BF6343F4D1
:1004B0000033D36010BDA421024800F04FFCEAE7EE
:1004C00000ED00E0E433000870B505460C46164622
:1004D0000F2A25D80F2C28D81B4BDB68C3F3022327
:1004E000C3F10702042A28BF0422191D062921D9B5
:1004F000033B4FF0FF3101FA02F224EA02049C4070
:1005000001FA03F326EA03063443002D14DB240129
:10051000E4B205F1604505F5614585F8004370BD1D
:10052000BC210A4800F01AFCD4E7BD21074800F0BE
:1005300015FCD1E70023DCE705F00F052401E4B248
:10054000034B5C55EBE700BF00ED00E0E43300082F
:1005500014ED00E00138B0F1807F0AD2064B5860FC
:10056000064AF02182F823100020986007221A60C2
:1005700070470120704700BF10E000E000ED00E090
:1005800010B50446042800D038B9042C0BD0094A11
:10059000136823F00403136010BD40F2B311064842
:1005A00000F0DCFBF1E7034A136843F00403136037
:1005B000F2E700BF10E000E0E433000830B583B09C
:1005C000044603680F2B29D8236813F0010F3DD090
:1005D0006368012B01D9052B25D1A34B9B6803F040
:1005E0000C03042B29D0A04B9B6803F00C03082BB1
:1005F0001ED022799D4B1A706368002B50D0FFF7F4
:100600003FFF0546984B1B6813F4003F1ED1FFF7D0
:1006100037FF401B6428F5D90320E3E1F521944816
:1006200000F09CFBD0E7FA21914800F097FBD4E75B
:100630008D4B5B6813F4800FDBD08B4B1B6813F47E
:10064000003F03D06368002B00F0C981236813F0DA
:10065000020F5DD0E368012B31D823691F2B34D8FA
:10066000814B9B6813F00C0F3AD07F4B9B6803F0D3
:100670000C03082B2FD0E368002B74D07D4B012294
:100680001A60FFF7FDFE0546774B1B6813F0020F5B
:100690005AD1FFF7F5FE401B0228F5D90320A1E14E
:1006A000FFF7EEFE0546704B1B6813F4003FCDD0FC
:1006B000FFF7E6FE401B6428F5D9032092E14FF4D2
:1006C00096716B4800F04AFBC7E740F22D1168486D
:1006D00000F044FBC4E7644B5B6813F4800FCAD19D
:1006E000614B1B6813F0020F04D0E368012B01D0AB
:1006F000012077E15C48036823F0F8032169F822C0
:1007000092FAA2F2B2FA82F201FA02F21343036001
:10071000236813F0080F50D06369012B35D8636943
:10072000002B38D0544B01221A60FFF7A9FE054672
:100730004D4B5B6F13F0020F3FD1FFF7A1FE401B43
:100740000228F5D903204DE14748036823F0F80358
:100750002169F82292FAA2F2B2FA82F201FA02F2C6
:1007600013430360D4E7434B00221A60FFF788FE6F
:1007700005463D4B1B6813F0020FC9D0FFF780FE02
:10078000401B0228F5D903202CE140F26D113848B6
:1007900000F0E4FAC3E7384B00221A60FFF770FE5E
:1007A0000546314B5B6F13F0020F06D0FFF768FE72
:1007B000401B0228F5D9032014E1236813F0040F2D
:1007C00060D0A368012B01D9052B1FD10023019311
:1007D000254B1A6C42F080521A641B6C03F0805354
:1007E0000193019B254A136843F480731360FFF75C
:1007F00047FE0546214B1B6813F4807F0CD1FFF7A1
:100800003FFE401B0228F5D90320EBE040F2971190
:10081000174800F0A3FAD9E7227A194B1A70A36897
:1008200083B1FFF72DFE05460F4B1B6F13F0020F30
:1008300028D1FFF725FE401B41F288339842F3D9B7
:100840000320CFE0FFF71CFE0546074B1B6F13F09C
:10085000020F17D0FFF714FE401B41F28833984275
:10086000F3D90320BEE000BF003802400238024046
:100870002834000800004742800E474200700040C4
:1008800070380240A369022B39D8A369002B00F00D
:10089000A880564A926802F00C02082A00F0A48050
:1008A000022B40F08880E36913B1B3F5800F2CD19F
:1008B000236A3F2B2FD8636A323BB3F5BF7F30D812
:1008C000A36A022B05D0042B03D0062B01D0082BE2
:1008D0002DD1E36A043B0B2B2FD8454B00221A6025
:1008E000FFF7CEFD0546414B1B6813F0007F2AD071
:1008F000FFF7C6FD401B0228F5D9032072E04FF434
:10090000E6713C4800F02AFABFE740F2D5113948B9
:1009100000F024FACCE74FF4EB71364800F01EFAF1
:10092000C9E740F2D711334800F018FAC8E74FF48E
:10093000EC71304800F012FACBE740F2D9112D48A3
:1009400000F00CFAC9E7E369226A1343616A47F6CB
:10095000C07292FAA2F2B2FA82F201FA02F21343E0
:10096000A26A5208013A4FF4403191FAA1F1B1FA6A
:1009700081F18A401343E16A4FF0706292FAA2F269
:10098000B2FA82F201FA02F21343184A5360184B8A
:1009900001221A60FFF774FD0446144B1B6813F024
:1009A000007F06D1FFF76CFD001B0228F5D903205C
:1009B00018E0002016E00E4B00221A60FFF760FDE1
:1009C00004460A4B1B6813F0007F06D0FFF758FD62
:1009D000001B0228F5D9032004E0002002E00120DA
:1009E00000E0002003B030BD0120FBE700380240EA
:1009F0006000474228340008214B9B6803F00C0339
:100A0000042B3AD0082B01D01E4870471C4B586865
:100A100000F03F005B6813F4800F1ED01A4AB2FB4F
:100A2000F0F2174B586847F6C073184093FAA3F3D7
:100A3000B3FA83F3D84000FB02F0114B5B6803F478
:100A400040334FF4403292FAA2F2B2FA82F2D3402B
:100A500001335B00B0FBF3F070470A4AB2FBF0F2DF
:100A6000074B586847F6C073184093FAA3F3B3FADC
:100A700083F3D84000FB02F0DFE70348704700BF74
:100A8000003802400024F40040787D0170B504462F
:100A90000D460368013B0E2B11D8072D15D88C4B42
:100AA0001B6803F00F03AB4215D2EBB2884A1370F8
:100AB000136803F00F03AB420DD0012070BD40F26C
:100AC0003721844800F04AF9E7E74FF40E71814876
:100AD00000F044F9E3E7236813F0020F18D0A3688D
:100AE0007BB1802B0DD0902B0BD0A02B09D0B02B3D
:100AF00007D0C02B05D0D02B03D0E02B01D0F02B9A
:100B000037D1754A936823F0F003A1680B439360D3
:100B1000236813F0010F73D06368032B2FD8636829
:100B2000012B32D09A1E012A36D96B4A126812F074
:100B3000020F00F0CA8068498A6822F0030213435A
:100B40008B60FFF79DFC06466368012B2BD0022BC0
:100B500038D0032B45D0604B9B6813F00C0F4FD05F
:100B6000FFF78EFC801B41F288339842F3D90320B3
:100B7000A4E740F24F21574800F0F0F8C1E740F2F7
:100B80005621544800F0EAF8C9E7534A126812F4B3
:100B9000003FD0D1012091E74F4A126812F0007F48
:100BA000C9D101208AE74C4B9B6803F00C03042B4E
:100BB00026D0FFF765FC801B41F288339842F2D9BA
:100BC00003207BE7444B9B6803F00C03082B17D0F2
:100BD000FFF756FC801B41F288339842F2D903207C
:100BE0006CE73D4B9B6803F00C030C2B08D0FFF720
:100BF00047FC801B41F288339842F2D903205DE71D
:100C0000334B1B6803F00F03AB4209D9EAB2304BF8
:100C10001A701B6803F00F03AB4201D001204DE7AF
:100C2000236813F0040F14D0E3685BB1B3F5805F61
:100C300008D0B3F5A05F05D0B3F5C05F02D0B3F51F
:100C4000E05F36D1244A936823F4E053E1680B4314
:100C50009360236813F0080F15D023695BB1B3F5D7
:100C6000805F08D0B3F5A05F05D0B3F5C05F02D0B8
:100C7000B3F5E05F23D1184A936823F460432169F8
:100C800043EAC1039360FFF7B7FE134B9B6803F081
:100C9000F003F02292FAA2F2B2FA82F2D3400F4AA3
:100CA000D35CD8400E4B18600F20FFF7B9FB002033
:100CB00004E74FF42D71074800F050F8C2E740F206
:100CC000BB21044800F04AF8D5E70120F6E600BF52
:100CD000003C024028340008003802401834000864
:100CE0000C000020014B1868704700BF0C0000206A
:100CF000FEE7000008B5034800F052F80120FFF7B6
:100D0000F7FF00BF5834000808B503460C4A1268C4
:100D10005AB10B4A1068033323F003030344094A12
:100D2000934206D8064A136008BD054A0649116079
:100D3000EFE701F0D9FE0C2303604FF0FF30F3E73B
:100D40008800002000FC002028010020012303600F
:100D5000014B0B60704700BF0400002008B50A4635
:100D60000146024800F004F8FFF7C4FF6C340008A5
:100D70000FB400B583B004AB53F8042B019380216A
:100D8000064801F0EBFE002803DD0146034800F0B1
:100D900047F803B05DF804EB04B070479000002002
:100DA00010B5044601F0A6FE0146204600F038F8D2
:100DB0000121024800F034F810BD00BF30350008B2
:100DC0002DE9F04385B004460F4643560BB10E465D
:100DD0001EE0042528462146ABBE0446384605B031
:100DE000BDE8F08314F9011B04AA1A4402F8101C90
:100DF0000133AB42F6D304AA1344002203F8102CAB
:100E00004FF00408E94640464946ABBE8046761B93
:100E1000002EE3D03546102E28BF10250023E8E72A
:100E200008B5FFF7CDFF08BD08B500F093F8024AFA
:100E3000024B9A6008BD00BF0000000800ED00E012
:100E4000F8B504460D4617461E462748FFF790FFA3
:100E500021682648FFF78CFF61682548FFF788FF67
:100E6000A1682448FFF784FFE1682348FFF780FF6B
:100E700021692248FFF77CFF61692148FFF778FF6D
:100E8000A1692048FFF774FFE1691F48FFF770FF71
:100E90001E48FFF76DFF29461D48FFF769FF1D4CEF
:100EA000E16A1D48FFF764FF216B1C48FFF760FFF4
:100EB000E16B1B48FFF75CFF15F0800F0AD115F4BA
:100EC000004F0CD11748FFF753FF06991648FFF75C
:100ED0004FFFF8BD39461548FFF74AFFEFE73146A7
:100EE0001348FFF745FFEDE798340008A8340008E1
:100EF000B8340008C8340008D8340008E8340008C2
:100F0000F8340008083500081835000828350008AE
:100F10003435000800ED00E0443500085435000881
:100F200064350008943500089C35000874350008C5
:100F30008435000883691A888A4201D000207047EE
:100F40000268033A012A03D8023383610120704703
:100F5000002070470C4B1A6842F001021A60002111
:100F600099601A6822F0847222F480321A60074A6B
:100F70005A601A6822F480221A60D960044B4FF03C
:100F800000629A60704700BF0038024010300024B1
:100F900000ED00E0224B9B6803F00C03042B14D0FF
:100FA000082B16D01BB11F4B1F4A1A6002E01D4BC5
:100FB0001D4A1A601A4B9B68C3F303131B4AD15C8A
:100FC000184A1368CB4013607047164B184A1A60D2
:100FD000F0E7134B5A685B6803F03F0312F4800F8D
:100FE00013D0134AB2FBF3F20D4B5B68C3F38813C3
:100FF00003FB02F30A4A5268C2F301420132520073
:10100000B3FBF2F3074A1360D4E7074AB2FBF3F2EB
:10101000034B5B68C3F3881303FB02F3EAE700BFEB
:10102000003802400C0000200024F400E0350008E5
:1010300040787D010F4B18600F4BDA6842F4005284
:10104000DA60DA6801780A43DA60DA68017A0A431A
:10105000DA60DA68417A0A43DA601A69817A0A4307
:101060001A615A69C17A0A435A6140F283629A60EE
:10107000704700BF2001002000100140002293B201
:101080008B4210D210B430F81240074B5C60064B14
:101090001B6813F0800FFAD00132D2B293B28B42A8
:1010A000F1D310BC7047704700100140024A13682A
:1010B00023F004031360704710E000E0024A136855
:1010C00043F002031360704710E000E0044B5860E7
:1010D00000229A601A6842F001021A60704700BF4D
:1010E00010E000E0024B588800F00100704700BF9C
:1010F00010E000E010B50C4B1C6824F002021A60EE
:1011000000220A4B00F0CCFE01F064F9FFF7DEFF8D
:10111000FFF7E8FF0028FBD014F0020F00D110BD4C
:10112000FFF7CCFFFBE700BF10E000E000409F406E
:10113000094A136843F00103136013F0020FFCD057
:1011400005498A6822F003028A6013F0040FFCD17B
:1011500013F0080FF9D1704700380240032922D854
:10116000DFE801F0020A121A012303FA00F00E4A26
:10117000136B034313637047012303FA00F00A4A19
:10118000536B034353637047012303FA00F0064A8D
:10119000136C034313647047012303FA00F0024AFF
:1011A000536C03435364704700380240012A03D94B
:1011B0000A2A01D00B2A35D110B4012814D018B155
:1011C000022820D004200DE0174B186849000324A2
:1011D0008C4020EA04001860186802FA01F101430B
:1011E0001960002010BC7047104B18684900032498
:1011F0008C4020EA04001860186802FA01F10143EB
:1012000019600020EEE7084B1868490003248C4061
:1012100020EA04001860186802FA01F1014319601D
:101220000020DFE704207047000002400004024075
:10123000012A05D001282AD000B3022830D07047F7
:1012400001280BD010B1022810D07047194843690B
:10125000012202FA01F119434161704716484369BE
:10126000012202FA01F119434161704711484369B3
:10127000012202FA01F11943416170470D484369A7
:10128000012202FA01F123EA0101416170470A4893
:101290004369012202FA01F123EA01014161704729
:1012A00004484369012202FA01F123EA0101416184
:1012B000704700BF000002400004024010B40F2A33
:1012C00030D807292ED801281ED078B102282ED177
:1012D000304C236A89000F20884023EA00032362F0
:1012E000236A02FA01F11943216220E0294C236AA2
:1012F00089000F20884023EA00032362236A02FA50
:1013000001F11943216212E0234C236A89000F2066
:10131000884023EA00032362236A02FA01F1194399
:10132000216204E0012814D018B1022821D010BC99
:101330007047184C636A01F0070080000F2181405C
:1013400023EA01036362636A02FA00F018436062F1
:10135000EDE71148446A01F007039B000F21994013
:1013600024EA01014162416A02FA03F30B4343623A
:10137000DDE7084B586A01F0070189000F248C4013
:1013800020EA04005862586A02FA01F101435962E6
:10139000CDE700BF000002400004024008B5032171
:1013A0000820FFF7DBFE0B2200210846FFF7FEFEB8
:1013B0000D4B00225A609A609A6822F400629A608B
:1013C0005A6822F040725A605A685A601A6922F0CC
:1013D00007021A611A6942F001021A619A6842F022
:1013E00001029A6008BD00BF0020014008B500F06E
:1013F0001F00084BD8629A6842F080429A60054B01
:101400001B6813F0020FFAD0024BD86C01F008F9F8
:1014100008BD00BF0020014038B514461D4601221A
:10142000FFF706FF002229462046FFF701FF38BDDF
:1014300008B501F0F5F84FF0665101F049F9084997
:1014400001F046F900F0D4FC03A3D3E9002300F037
:1014500051FE00F0DFFF08BD7B14AE47E17A843F08
:101460000000A040F8B505460F46064600EB4003D5
:101470009A00434B1344D9780F291BD8012200202E
:10148000FFF7D6FE05EB45039A003D4B13449978D0
:101490000F2916D800221046FFF7CAFE05EB4502B9
:1014A0009300374AD35CC3F340137BBB002B60D15E
:1014B00004243AE010390122C9B21046FFF7B8FE01
:1014C000E0E710390022C9B20120FFF7B1FEE5E7DD
:1014D00047FA04F2103902F00102C9B20120FFF705
:1014E000A7FE0134E4B2072C12D806EB46039A009B
:1014F000234B1344234419790F29E9D847FA04F2FE
:1015000002F001020020FFF793FEEAE70024EAE779
:1015100000241EE047FA04F2103902F00102C9B2B9
:101520000120FFF785FE0134E4B2072C10D806EB4A
:1015300046039A00124B1344234419790F29E9D822
:1015400047FA04F202F001020020FFF771FEEAE719
:10155000002405EB4505AA00094B1344D9780F294F
:1015600009D910390022C9B20120FFF761FE2046D7
:10157000F8BD0424EDE700221046FFF759FEF6E718
:1015800010000020D0B938B504460D4600EB4003EA
:101590009A000B4B134459780F2908D800221046A3
:1015A000FFF746FE29462046FFF75CFF38BD10399D
:1015B0000022C9B20120FFF73BFEF3E7022070478B
:1015C00010000020000000002DE9F84300240CB1B9
:1015D000BDE8F88366A1D1E90001FFF78BFD04EBBC
:1015E00044029300644AD35C13F0200F75D120218C
:1015F0002046FFF7C7FF0026604F30463946FFF709
:1016000079FD20212046FFF7BDFF30463946FFF720
:1016100071FDDFF8648165002B194FEA830918F822
:10162000093003F00101C3F340039B0143EAC111F8
:101630002046FFF7A7FF30463946FFF75BFD002144
:101640002046FFF79FFF30463946FFF753FD18F855
:101650000930C3F38001890161F07F01C3F3C00247
:1016600041EA4211C3F3001341EA031101F0F00112
:101670002046FFF787FF30463946FFF73BFD002144
:101680002046FFF77FFF30463946FFF733FD102134
:101690002046FFF777FF30463946FFF72BFD002144
:1016A0002046FFF76FFF30463946FFF723FD18F855
:1016B0000930C3F380135B0143F0400318F80910AD
:1016C000C90943EA01112046FFF75CFF304639465D
:1016D000FFF710FD0134E4B279E7904665002B195D
:1016E0004FEA830912F8091001F00103DB0043F00F
:1016F0003003C1F3400143EA81012046FFF742FF76
:1017000000261E4F30463946FFF7F4FC18F8091042
:10171000C1F380039B0043F00803C1F3C00243EA16
:101720004203C1F3001119432046FFF72BFF304657
:101730003946FFF7DFFC01212046FFF723FF304643
:101740003946FFF7D7FC18F80930C3F380135B0064
:1017500043F0040318F8091043EAD1112046FFF7BB
:1017600011FF30463946FFF7C5FCB3E7AFF3008001
:101770000000000000C07240100000200000344053
:10178000D0B938B504460D4600EB40039A000B4B28
:10179000134459780F2908D80122FFF749FD29463B
:1017A0002046FFF75FFE002038BD10390122C9B284
:1017B0001046FFF73DFDF2E70220704710000020C1
:1017C000F8B507460E461546002404E0315D38465C
:1017D000FFF7D6FF0134A542F8DCF8BD2DE9F84F3C
:1017E00000AF80460D460021284601F00FF930B9C0
:1017F0004FF00009284601F031F901220BE005F114
:1018000000454FF00109F5E70132284B83FB001337
:10181000C017C0EBA30000F10903122BF4D8B9F1F3
:10182000000F00D00132073222F00702ADEB020DAB
:101830006C460026284601F011F91C4A82FB003252
:10184000C317C3EBA20303EB83035A00831A30339D
:1018500006F1010AA3551649284600F0EDFF05469A
:1018600001F0FCF8564683460028E3D1B9F1000F99
:1018700002D02D2304F80A3052465B4605E0E156BB
:10188000A056E054A1540133013A9342F7DB07E03C
:1018900014F90B10C9B24046FFF772FF0BF1010BB0
:1018A000D345F5DDBD46BDE8F88F00BF67666666C7
:1018B0000000204170B594B000240194204B1A6CB4
:1018C00042F080521A641B6C03F080530193019B19
:1018D00002941C4B1A6842F440421A601B6803F4DD
:1018E00040430293029B0123089309934FF4800322
:1018F0000F93192310934FF4A87311930426129693
:101900000723139302250E9508A8FEF757FE0F2311
:101910000393049505944FF4805306930794294646
:1019200003A8FFF7B3F8FFF7DDF9074BA3FB00307F
:101930008009FEF70FFE3046FEF722FE14B070BDA0
:101940000038024000700040D34D621008B5FEF729
:101950007DFDFFF7AFFFFFF71DFB08BD70B5FFF77B
:10196000E7FB00210846FFF7F9FB00210120FFF704
:10197000F5FB03210420FFF7F1FB03210E20FFF705
:10198000EDFBFFF70BFDFFF791FB00200C2303702D
:101990004FF416534360007240728072C07200733D
:1019A000FFF748FB01240B2C1CDD012211461046D9
:1019B000FFF7FCFB012202211046FFF7F7FB0A228A
:1019C00006210120FFF7F2FB072206210120FFF785
:1019D00075FC0223012211461046FFF71DFDFFF79B
:1019E000F3FD24E00122E1B20020FFF7DFFB013428
:1019F000D9E700204049FFF77DFB00223F4B2046FE
:101A0000294600F097F804460D4600223C4B20463C
:101A1000294600F0B7FC0028EBD10121FFF7B2FD09
:101A20003046FFF705FD374901F004F890B9002072
:101A3000FFF7DCFC01F038F886B23046FFF7F8FC1F
:101A4000314900F03DFD01460020FFF7C7FE0024AC
:101A50000025DAE70C222D490020FFF7B1FE022114
:101A60002B48FFF70BFB002400250BE00020224948
:101A7000FFF740FB0022214B2046294600F05AF890
:101A800004460D460022234B2046294600F07AFCEE
:101A90000028EBD1FFF7AAFC01F006F884B220463B
:101AA000FFF7C6FC184900F00BFD01460020FFF7C8
:101AB00095FE2046FFF7BCFC124900F0BBFF68B161
:101AC00002211548FFF7DAFA01210020FFF75AFD3D
:101AD0000F2212490020FFF773FEA8E72046FFF708
:101AE000A7FC084900F092FF0028A0D002210C4872
:101AF000FFF7C4FA9BE700BF00407F400000F03FC3
:101B0000000034400000B4420000C842F035000834
:101B10000036000800005940043600080836000866
:101B2000183600087047000081F0004102E000BF55
:101B300083F0004330B54FEA41044FEA430594EA8D
:101B4000050F08BF90EA020F1FBF54EA000C55EAC8
:101B5000020C7FEA645C7FEA655C00F0E2804FEA99
:101B60005454D4EB5555B8BF6D420CDD2C4480EA7B
:101B7000020281EA030382EA000083EA010180EAAB
:101B8000020281EA0303362D88BF30BD11F0004FF9
:101B90004FEA01314FF4801C4CEA113102D040422F
:101BA00061EB410113F0004F4FEA03334CEA13336A
:101BB00002D0524263EB430394EA050F00F0A78082
:101BC000A4F10104D5F1200E0DDB02FA0EFC22FA7D
:101BD00005F2801841F1000103FA0EF2801843FA71
:101BE00005F359410EE0A5F120050EF1200E012A62
:101BF00003FA0EFC28BF4CF0020C43FA05F3C018A0
:101C000051EBE37101F0004507D54FF0000EDCF118
:101C1000000C7EEB00006EEB0101B1F5801F1BD3C1
:101C2000B1F5001F0CD349085FEA30004FEA3C0CC5
:101C300004F101044FEA445212F5800F80F09A80BB
:101C4000BCF1004F08BF5FEA500C50F1000041EBBF
:101C5000045141EA050130BD5FEA4C0C404141EBC3
:101C6000010111F4801FA4F10104E9D191F0000FEA
:101C700004BF01460020B1FA81F308BF2033A3F16D
:101C80000B03B3F120020CDA0C3208DD02F1140C64
:101C9000C2F10C0201FA0CF021FA02F10CE002F19F
:101CA0001402D8BFC2F1200C01FA02F120FA0CFC98
:101CB000DCBF41EA0C019040E41AA2BF01EB0451E1
:101CC000294330BD6FEA04041F3C1CDA0C340EDCDF
:101CD00004F11404C4F1200220FA04F001FA02F322
:101CE00040EA030021FA04F345EA030130BDC4F1E0
:101CF0000C04C4F1200220FA02F001FA04F340EAD5
:101D00000300294630BD21FA04F0294630BD94F085
:101D1000000F83F4801306BF81F480110134013D6C
:101D20004EE77FEA645C18BF7FEA655C29D094EADD
:101D3000050F08BF90EA020F05D054EA000C04BF5B
:101D40001946104630BD91EA030F1EBF0021002046
:101D500030BD5FEA545C05D14000494128BF41F0E5
:101D6000004130BD14F580043CBF01F5801130BD49
:101D700001F0004545F0FE4141F470014FF00000D4
:101D800030BD7FEA645C1ABF194610467FEA655C85
:101D90001CBF0B46024650EA013406BF52EA033527
:101DA00091EA030F41F4002130BD00BF90F0000F15
:101DB00004BF0021704730B54FF4806404F1320451
:101DC0004FF000054FF0000150E700BF90F0000F0A
:101DD00004BF0021704730B54FF4806404F1320431
:101DE00010F0004548BF40424FF000013EE700BF01
:101DF00042004FEAE2014FEA31014FEA02701FBF91
:101E000012F07F4393F07F4F81F06051704732F0C2
:101E10007F4208BF704793F07F4F04BF41F4002119
:101E2000704730B54FF4607401F0004521F0004177
:101E30001CE700BF50EA010208BF704730B54FF001
:101E400000050AE050EA010208BF704730B511F002
:101E5000004502D5404261EB41014FF4806404F13A
:101E600032045FEA915C3FF4D8AE4FF003025FEAC0
:101E7000DC0C18BF03325FEADC0C18BF033202EB44
:101E8000DC02C2F1200300FA03FC20FA02F001FA9E
:101E900003FE40EA0E0021FA02F11444BDE600BF41
:101EA00070B54FF0FF0C4CF4E06C1CEA11541DBFF0
:101EB0001CEA135594EA0C0F95EA0C0F00F0DEF8BB
:101EC0002C4481EA030621EA4C5123EA4C5350EAA0
:101ED000013518BF52EA033541F4801143F48013F1
:101EE00038D0A0FB02CE4FF00005E1FB02E506F082
:101EF0000042E0FB03E54FF00006E1FB03569CF0D7
:101F0000000F18BF4EF0010EA4F1FF04B6F5007FDC
:101F100064F5407404D25FEA4E0E6D4146EB06064E
:101F200042EAC62141EA55514FEAC52040EA5E50D7
:101F30004FEACE2EB4F1FD0C88BFBCF5E06F1ED881
:101F4000BEF1004F08BF5FEA500E50F1000041EBB8
:101F5000045170BD06F0004646EA010140EA020065
:101F600081EA0301B4EB5C04C2BFD4EB0C0541EA87
:101F7000045170BD41F480114FF0000E013C00F39C
:101F8000AB8014F1360FDEBF002001F0004170BDC0
:101F9000C4F10004203C35DA0C341BDC04F11404D9
:101FA000C4F1200500FA05F320FA04F001FA05F265
:101FB00040EA020001F0004221F0004110EBD37032
:101FC00021FA04F642EB06015EEA430E08BF20EA5E
:101FD000D37070BDC4F10C04C4F1200500FA04F301
:101FE00020FA05F001FA04F240EA020001F0004193
:101FF00010EBD37041F100015EEA430E08BF20EA06
:10200000D37070BDC4F1200500FA05F24EEA020E4D
:1020100020FA04F301FA05F243EA020321FA04F07C
:1020200001F0004121FA04F220EA020000EBD37033
:102030005EEA430E08BF20EAD37070BD94F0000F33
:102040000FD101F00046400041EB010111F4801F67
:1020500008BF013CF7D041EA060195F0000F18BF18
:10206000704703F00046520043EB030313F4801F54
:1020700008BF013DF7D043EA0603704794EA0C0F0E
:102080000CEA135518BF95EA0C0F0CD050EA410624
:1020900018BF52EA4306D1D181EA030101F00041A1
:1020A0004FF0000070BD50EA410606BF10461946C9
:1020B00052EA430619D094EA0C0F02D150EA0136D5
:1020C00013D195EA0C0F05D152EA03361CBF104616
:1020D00019460AD181EA030101F0004141F0FE41B5
:1020E00041F470014FF0000070BD41F0FE4141F439
:1020F000780170BD70B54FF0FF0C4CF4E06C1CEA39
:1021000011541DBF1CEA135594EA0C0F95EA0C0FED
:1021100000F0A7F8A4EB050481EA030E52EA0335A8
:102120004FEA013100F088804FEA03334FF08055C9
:1021300045EA131343EA12634FEA022245EA1115F6
:1021400045EA10654FEA00260EF000419D4208BFA7
:10215000964244F1FD0404F5407402D25B084FEA54
:102160003202B61A65EB03055B084FEA32024FF400
:1021700080104FF4002CB6EB020E75EB030E22BF5D
:10218000B61A754640EA0C005B084FEA3202B6EB1D
:10219000020E75EB030E22BFB61A754640EA5C00CC
:1021A0005B084FEA3202B6EB020E75EB030E22BF5C
:1021B000B61A754640EA9C005B084FEA3202B6EB5D
:1021C000020E75EB030E22BFB61A754640EADC001C
:1021D00055EA060E18D04FEA051545EA16754FEA7E
:1021E00006164FEAC30343EA52734FEAC2025FEA9C
:1021F0001C1CC0D111F4801F0BD141EA00014FF02B
:1022000000004FF0004CB6E711F4801F04BF0143FB
:102210000020B4F1FD0C88BFBCF5E06F3FF6AFAE17
:10222000B5EB030C04BFB6EB020C5FEA500C50F1A7
:10223000000041EB045170BD0EF0004E4EEA11312A
:1022400014EB5C04C2BFD4EB0C0541EA045170BD31
:1022500041F480114FF0000E013C90E645EA060E75
:102260008DE60CEA135594EA0C0F08BF95EA0C0FA3
:102270003FF43BAF94EA0C0F0AD150EA01347FF4EB
:1022800034AF95EA0C0F7FF425AF104619462CE7C2
:1022900095EA0C0F06D152EA03353FF4FDAE104625
:1022A000194622E750EA410618BF52EA43067FF476
:1022B000C5AE50EA41047FF40DAF52EA43057FF406
:1022C000EBAE12E74FF0FF3C06E000BF4FF0010C11
:1022D00002E000BF4FF0010C4DF804CD4FEA410C75
:1022E0007FEA6C5C4FEA430C18BF7FEA6C5C1BD042
:1022F00001B050EA410C0CBF52EA430C91EA030FC3
:1023000002BF90EA020F0020704710F1000F91EA1F
:10231000030F58BF994208BF90422CBFD8176FEAED
:10232000E37040F0010070474FEA410C7FEA6C5CBB
:1023300002D150EA013C07D14FEA430C7FEA6C5CC2
:10234000D6D152EA033CD3D05DF8040B704700BFEE
:102350008446104662468C461946634600E000BF3C
:1023600001B5FFF7B7FF002848BF10F1000F01BD0E
:102370004DF808EDFFF7F4FF0CBF012000205DF8D9
:1023800008FB00BF4DF808EDFFF7EAFF34BF01205E
:1023900000205DF808FB00BF4DF808EDFFF7E0FFF7
:1023A00094BF012000205DF808FB00BF4DF808ED48
:1023B000FFF7CEFF94BF012000205DF808FB00BFAF
:1023C0004DF808EDFFF7C4FF34BF012000205DF891
:1023D00008FB00BF4A0011D212F5001211D20DD530
:1023E0006FF47873B3EB62520ED44FEAC12343F01B
:1023F000004343EA505323FA02F070474FF00000C5
:10240000704750EA013002D14FF0FF3070474FF073
:10241000000070474FEA4102B2F1E04324BFB3F538
:10242000001CDCF1FE5C0DD901F0004C4FEAC0024B
:102430004CEA5070B2F1004F40EB830008BF20F02F
:102440000100704711F0804F21D113F13872BCBFE9
:1024500001F00040704741F480114FEA5252C2F13E
:102460001802C2F1200C10FA0CF320FA02F018BF87
:1024700040F001004FEAC1234FEAD32303FA0CFCDA
:1024800040EA0C0023FA02F34FEA4303CCE77FEA69
:10249000625307D150EA01331EBF4FF0FE4040F4B3
:1024A0004000704701F0004040F0FE4040F4000062
:1024B000704700BF80F0004002E000BF81F00041A3
:1024C00042001FBF5FEA410392EA030F7FEA226CDA
:1024D0007FEA236C6AD04FEA1262D2EB1363C1BF6A
:1024E000D218414048404140B8BF5B42192B88BFD9
:1024F000704710F0004F40F4000020F07F4018BFFC
:10250000404211F0004F41F4000121F07F4118BF1B
:10251000494292EA030F3FD0A2F1010241FA03FCC3
:1025200010EB0C00C3F1200301FA03F100F00043AB
:1025300002D5494260EB4000B0F5000F13D3B0F173
:10254000807F06D340084FEA310102F10102FE2AE2
:1025500051D2B1F1004F40EBC25008BF20F0010052
:1025600040EA03007047490040EB000010F4000F00
:10257000A2F10102EDD1B0FA80FCACF1080CB2EB93
:102580000C0200FA0CF0AABF00EBC25052421843F2
:10259000BCBFD0401843704792F0000F81F4000197
:1025A00006BF80F400000132013BB5E74FEA41036A
:1025B0007FEA226C18BF7FEA236C21D092EA030FD6
:1025C00004D092F0000F08BF0846704790EA010F50
:1025D0001CBF0020704712F07F4F04D1400028BF7D
:1025E00040F00040704712F100723CBF00F500005F
:1025F000704700F0004343F0FE4040F40000704795
:102600007FEA226216BF08467FEA23630146420240
:1026100006BF5FEA412390EA010F40F48000704753
:102620004FF0000304E000BF10F0004348BF4042F9
:102630005FEA000C08BF704743F0964301464FF035
:1026400000001CE050EA010208BF70474FF0000391
:102650000AE000BF50EA010208BF704711F00043D2
:1026600002D5404261EB41015FEA010C02BF8446A2
:102670000146002043F0B64308BFA3F18053A3F501
:102680000003BCFA8CF2083AA3EBC25310DB01FA48
:1026900002FC634400FA02FCC2F12002BCF1004FCC
:1026A00020FA02F243EB020008BF20F0010070475D
:1026B00002F1200201FA02FCC2F1200250EA4C00B1
:1026C00021FA02F243EB020008BF20EADC707047F7
:1026D0004FF0FF0C1CEAD0521EBF1CEAD15392EA05
:1026E0000C0F93EA0C0F6FD01A4480EA010C4002E1
:1026F00018BF5FEA41211ED04FF0006343EA50103B
:1027000043EA5111A0FB01310CF00040B1F5000F7C
:102710003EBF490041EAD3715B0040EA010062F12B
:102720007F02FD2A1DD8B3F1004F40EBC25008BF15
:1027300020F00100704790F0000F0CF0004C08BF33
:1027400049024CEA502040EA51207F3AC2BFD2F100
:10275000FF0340EAC250704740F400004FF000030E
:10276000013A5DDC12F1190FDCBF00F00040704748
:10277000C2F10002410021FA02F1C2F1200200FA86
:1027800002FC5FEA310040F1000053EA4C0308BF4D
:1027900020EADC70704792F0000F00F0004C02BF9E
:1027A000400010F4000F013AF9D040EA0C0093F019
:1027B000000F01F0004C02BF490011F4000F013B73
:1027C000F9D041EA0C018FE70CEAD15392EA0C0FE1
:1027D00018BF93EA0C0F0AD030F0004C18BF31F04C
:1027E000004CD8D180EA010000F00040704790F022
:1027F000000F17BF90F0004F084691F0000F91F0C6
:10280000004F14D092EA0C0F01D142020FD193EA8B
:102810000C0F03D14B0218BF084608D180EA010013
:1028200000F0004040F0FE4040F40000704740F0EF
:10283000FE4040F4400070474FF0FF0C1CEAD052BD
:102840001EBF1CEAD15392EA0C0F93EA0C0F69D019
:10285000A2EB030280EA010C49024FEA402037D084
:102860004FF0805343EA111143EA10130CF000407B
:102870008B4238BF5B0042F17D024FF4000C8B426B
:1028800024BF5B1A40EA0C00B3EB510F24BFA3EB4B
:10289000510340EA5C00B3EB910F24BFA3EB91031B
:1028A00040EA9C00B3EBD10F24BFA3EBD10340EA75
:1028B000DC001B0118BF5FEA1C1CE0D1FD2A3FF6BB
:1028C00050AF8B4240EBC25008BF20F00100704770
:1028D0000CF0004C4CEA50207F32C2BFD2F1FF0313
:1028E00040EAC250704740F400004FF00003013A44
:1028F00037E792F0000F00F0004C02BF400010F4E8
:10290000000F013AF9D040EA0C0093F0000F01F0FB
:10291000004C02BF490011F4000F013BF9D041EA1D
:102920000C0195E70CEAD15392EA0C0F08D1420250
:102930007FF47DAF93EA0C0F7FF470AF084676E723
:1029400093EA0C0F04D14B023FF44CAF08466EE7FC
:1029500030F0004C18BF31F0004CCAD130F00042CA
:102960007FF45CAF31F000437FF43CAF5FE700BF22
:102970004FF0FF3C06E000BF4FF0010C02E000BF4B
:102980004FF0010C4DF804CD4FEA40024FEA4103ED
:102990007FEA226C18BF7FEA236C11D001B052EAA3
:1029A000530C18BF90EA010F58BFB2EB030088BF69
:1029B000C81738BF6FEAE17018BF40F001007047D8
:1029C0007FEA226C02D15FEA402C05D17FEA236CBA
:1029D000E4D15FEA412CE1D05DF8040B704700BF01
:1029E000844608466146FFE70FB5FFF7C9FF002898
:1029F00048BF10F1000F0FBD4DF808EDFFF7F4FFD1
:102A00000CBF012000205DF808FB00BF4DF808ED69
:102A1000FFF7EAFF34BF012000205DF808FB00BF8C
:102A20004DF808EDFFF7E0FF94BF012000205DF8AE
:102A300008FB00BF4DF808EDFFF7D2FF94BF01205F
:102A400000205DF808FB00BF4DF808EDFFF7C8FF58
:102A500034BF012000205DF808FB00BF4FEA4002B0
:102A6000B2F1FE4F0FD34FF09E03B3EB12620DD9BC
:102A70004FEA002343F0004310F0004F23FA02F026
:102A800018BF404270474FF00000704712F1610FCD
:102A900001D1420205D110F0004008BF6FF00040A4
:102AA00070474FF00000704742000ED2B2F1FE4F67
:102AB0000BD34FF09E03B3EB126209D44FEA00230D
:102AC00043F0004323FA02F070474FF000007047D4
:102AD00012F1610F01D1420202D14FF0FF30704775
:102AE0004FF00000704700BF014B1868704700BFEF
:102AF0001C000020034613F8012B002AFBD1181AF2
:102B00000138704730B5141E05469BB0184605DAEB
:102B10008B232B604FF0FF301BB030BD4FF402739E
:102B2000ADF80C3014BF04F1FF3323460293059334
:102B30004FF6FF7300910491ADF80E3002461E9BD4
:102B40006946284600F0CCF8431CBCBF8B232B60A1
:102B5000002CE1D0009B00221A70DDE707B500933E
:102B600013460A46014603480068FFF7CBFF03B04F
:102B70005DF804FB1C00002070B5CD1C25F003059A
:102B800008350C2D38BF0C25002D064601DBA94267
:102B900003D90C233360002070BD00F0A5FB214A4F
:102BA0001468214691B9204C23681BB9304600F0C7
:102BB00015FB20602946304600F010FB431C24D151
:102BC0000C233360304600F090FBE4E70B685B1B9E
:102BD00018D40B2B0FD90B60CD50CC18304600F019
:102BE00084FB04F10B00231D20F00700C31AD3D08F
:102BF0005A42E250D0E78C424B6816BF63601360C4
:102C00000C46EBE70C464968CCE7C41C24F00304EF
:102C1000A04205D0211A304600F0E0FA0130CFD0B2
:102C20002560DBE710010020140100202DE9F047AA
:102C30008E689E4282460C469046994637D88A89CD
:102C400012F4906F31D0256809696F1A6569022303
:102C500005EB450595FBF3F509F101033B449D4266
:102C600038BF1D46530530D52946FFF785FF064678
:102C700050B90C23CAF80030A38943F04003A38164
:102C80004FF0FF30BDE8F0873A46216900F008FBBD
:102C9000A38923F4906343F08003A38126616561D7
:102CA0003E44ED1B2660A5604E464E4500D94E467B
:102CB00032464146206800F0FEFAA3689B1BA360E1
:102CC00023681E4426600020DCE72A4600F05CFBF7
:102CD00006460028E2D12169504600F007FBC8E70C
:102CE0002DE9F04F9DB0804603938B891D060C465D
:102CF00016460FD50B696BB94021FFF73DFF2060E9
:102D0000206128B90C23C8F800304FF0FF30C7E02D
:102D1000402363610023099320238DF82930302359
:102D20008DF82A304FF0010B37463D4615F8013B30
:102D30000BB1252B3ED1B7EB060A0BD053463246DA
:102D400021464046FFF772FF013000F0A480099B46
:102D5000534409933B78002B00F09D8000234FF0F3
:102D6000FF32CDE90523049307938DF853301A936E
:102D70002F46052217F8011B4F4800F041FA049B2B
:102D8000D0B9D90644BF20228DF853201A0744BF7A
:102D90002B228DF853202A782A2A15D0079A2F46FD
:102DA00000200A25394611F8013B303B092B4DD94B
:102DB000B8B10FE02F46B8E73F4A801A0BFA00F08F
:102DC000184304903D46D3E7039A111D12680391FE
:102DD000002A01DB079204E0524243F0020307920B
:102DE00004933B782E2B0CD17B782A2B33D1039B79
:102DF0001A1D1B680392002BB8BF4FF0FF33023738
:102E000005932E4D39780322284600F0F9F938B1A0
:102E10004023401B03FA00F0049B03430137049353
:102E2000397827488DF8281006227E1C00F0E8F932
:102E3000002838D0234B13BB039B073323F0070331
:102E400008330393099B4B4409936DE705FB02325A
:102E500001200F46A6E700230137059319460A25EE
:102E6000384610F8012B303A092A03D9002BC8D074
:102E70000591C6E705FB012101230746F0E703ABF7
:102E800000932246104B04A94046AFF30080B0F1F6
:102E9000FF3F8146D6D1A3895B063FF536AF09983F
:102EA0001DB0BDE8F08F03AB00932246064B04A98A
:102EB000404600F081F8EAE77C36000882360008D8
:102EC00086360008000000002D2C00082DE9F04790
:102ED00091461F468A680B69DDF820809342B8BF8F
:102EE0001346C9F8003091F8432006460C4612B14B
:102EF0000133C9F800302368990642BFD9F8003081
:102F00000233C9F80030256815F0060507D104F131
:102F1000190AE368D9F800209B1AAB4228DC94F820
:102F200043302268003318BF012392062DD404F1E8
:102F3000430239463046C047013020D02368E56857
:102F4000D9F8002003F00603042B08BFAD1AA368CC
:102F500022690CBF25EAE57500259342C4BF9B1A80
:102F6000ED184FF000091A344D451AD1002008E041
:102F70000123524639463046C047013003D14FF055
:102F8000FF30BDE8F0870135C3E7E1185A1C302057
:102F900081F84300224494F8451082F8431002332C
:102FA000C5E70123224639463046C0470130E6D006
:102FB00009F10109D8E700002DE9F04301F1430CC4
:102FC0000C46097E85B06E291746064698460C9A2F
:102FD00000F0B38022D8632936D00AD8002900F047
:102FE000B980582900F0838004F1420584F842102A
:102FF00032E0642901D06929F6D1206813680506FA
:1030000003F104012AD51B681160002B03DA2D227D
:103010005B4284F843206F480A2239E0732900F0AC
:103020009D8008D86F2920D07029DDD1236843F016
:103030002003236003E0752917D07829D4D17823A1
:1030400084F84530644855E01368191D1B68116009
:1030500004F1420584F8423001238CE01B681160C2
:1030600010F0400F18BF1BB2CFE713682568181D7A
:103070001060280601D51B6802E06806FBD51B8896
:1030800054486F2914BF0A220822002184F84310F3
:103090006568A560002DC0F29580216821F00401CB
:1030A0002160002B3DD1002D40F08E806546082A1E
:1030B0000BD12368DB0708D5236962689A42DEBF1B
:1030C000302305F8013C05F1FF35ACEB0503236126
:1030D000CDF800803B4603AA21463046FFF7F6FEB6
:1030E00001304DD14FF0FF3005B0BDE8F0833948D5
:1030F00084F84510136821681D1D1B6815600A06B9
:103100000BD5CA0744BF41F0200121601BB92268DA
:1031100022F0200222601022B7E74D0648BF9BB282
:10312000EFE76546B3FBF2F102FB1133C35C05F830
:10313000013D0B460029F5D1B9E71368256861699F
:10314000181D106028061B6801D5196002E06A0688
:10315000FBD51980002323616546B9E71368191D63
:1031600011601D6862680021284600F049F808B126
:10317000401B606063682361002384F84330A7E745
:1031800023692A4639463046C0470130AAD0236811
:103190009B0713D4E068039B9842B8BF1846A3E787
:1031A00001234A4639463046C04701309AD001359E
:1031B000E368039A9B1AAB42F2DCEBE7002504F1CB
:1031C0001909F5E7002BACD1037884F8423004F1FB
:1031D00042056CE78D3600089E36000838B5064C6F
:1031E0000023054608462360FDF78EFD431C02D1EF
:1031F000236803B12B6038BD1C01002000000000D3
:1032000001F0FF01102A2BDB10F0070F08D010F897
:10321000013B013A8B422DD010F0070F42B3F6D19B
:10322000F0B441EA012141EA014122F007047FF0B4
:1032300000070023F0E80256083C85EA010586EA0B
:10324000010685FA47F5A3FA87F586FA47F6A5FA47
:1032500087F68EB9EED1F0BC01F0FF0102F0070253
:1032600032B110F8013B013A83EA010313B1F8D1FE
:103270000020704701387047002D06BF35460338DF
:10328000073815F0010F07D1013015F4807F02BF18
:10329000013015F4C03F0130F0BC0138704700BF69
:1032A00010B5431E0A44914200D110BD11F8014BE4
:1032B00003F8014FF7E7884210B501EB020307D886
:1032C000421E99420AD011F8014B02F8014FF8E76B
:1032D0008342F5D98118D21AD34200D110BD13F818
:1032E000014D01F8014DF7E77047704738B50546C5
:1032F000002945D051F8043C0C1F002BB8BFE4183E
:10330000FFF7F2FF1F4A1368104633B96360146079
:103310002846BDE83840FFF7E8BFA3420CD9216832
:103320006218934204BF1A685B68636004BF521856
:1033300022600460ECE713465A680AB1A242FAD947
:1033400019685818A0420BD12068014458188242CD
:103350001960DDD1106852685A6001441960D7E7DE
:1033600002D90C232B60D3E7206821188A4204BFBE
:1033700011685268626004BF091821605C60C7E789
:1033800038BD00BF10010020F8B5074614460E46B0
:1033900021B91146BDE8F840FFF7EEBB22B9FFF7AF
:1033A000A5FF25462846F8BD00F014F8A0420FD22C
:1033B00021463846FFF7E0FB05460028F2D03146AB
:1033C0002246FFF76DFF31463846FFF78FFFE9E7EA
:1033D0003546E7E751F8043C181F002BBCBF0B58DB
:1033E000C01870472E2E2F73797374656D2F73720A
:1033F000632F73746D333266342D68616C2F737470
:103400006D3332663478785F68616C5F636F7274B5
:1034100065782E6300000000000000000102030434
:1034200001020304060708092E2E2F7379737465B1
:103430006D2F7372632F73746D333266342D686130
:103440006C2F73746D3332663478785F68616C5FAB
:103450007263632E6300000061626F727428292C0E
:103460002065786974696E672E2E2E00617373650E
:1034700072745F706172616D2829206661696C6584
:10348000643A2066696C6520222573222C206C69C1
:103490006E652025640A0000537461636B206672B8
:1034A000616D653A0A000000205230203D20202541
:1034B0003038580A00000000205231203D202025DD
:1034C0003038580A00000000205232203D202025CC
:1034D0003038580A00000000205233203D202025BB
:1034E0003038580A0000000020523132203D20259B
:1034F0003038580A00000000204C52203D20202582
:103500003038580A00000000205043203D2020257C
:103510003038580A0000000020505352203D20252A
:103520003038580A000000004653522F4641523AA4
:103530000A0000002043465352203D202025303809
:10354000580A00002048465352203D20202530389C
:10355000580A00002044465352203D202025303890
:10356000580A00002041465352203D202025303883
:10357000580A0000204D4D464152203D202530384C
:10358000580A00002042464152203D202025303874
:10359000580A00004D6973630A000000204C522F46
:1035A0004558435F52455455524E3D2025303858BA
:1035B0000A0000005B486172644661756C745D0AC4
:1035C000000000005B4275734661756C745D0A0013
:1035D0005B55736167654661756C745D0A00000038
:1035E00000000000000000000102030406070809B3
:1035F000202020204869676854656D700000000035
:103600003100000033000000202020204175746F3D
:103610005061726B696E67003200000000000000AC
:10362000000000000000000000000000000000009A
:10363000000000000000000000000000000000008A
:10364000000000000000000000000000000000007A
:10365000000000000000000000000000000000006A
:10366000000000000000000000000000000000005A
:10367000000000000000000000000000232D302B9F
:103680002000686C4C006566674546470030313263
:1036900033343536373839414243444546003031BA
:0F36A0003233343536373839616263646566001A
:1036B000785634128C000020000000000024F40032
:1036C000650B0102030405060708090A2000002013
:1036D000000000003C3600085C3600081C3600087C
:1036E00000000000000000000000000000000000DA
:1036F00000000000000000000000000000000000CA
:1037000000000000000000000000000000000000B9
:1037100000000000000000000000000000000000A9
:103720000000000000000000000000000000000099
:043730003254769801
:040000050800019559
:00000001FF
