:020000040800F2
:1000000080060020190200082102000823020008CF
:10001000250200082702000829020008000000004D
:100020000000000000000000000000002B0200089B
:100030002D020008000000002F02000891120008A5
:1000400033020008330200083302000833020008BC
:100050003302000833020008D5020008F502000848
:1000600015030008350300083302000833020008B6
:10007000330200083302000833020008330200088C
:1000800033020008330200083302000800000000B9
:100090000000000000000000000000003302000823
:1000A000330200083302000833020008330200085C
:1000B000330200083302000833020008330200084C
:1000C000330200083302000833020008330200083C
:1000D00033020008B51200083302000800000000D7
:1000E0003302000833020008330200080000000059
:1000F00000000000000000000000000033020008C3
:100100000000000033020008330200083302000838
:1001100000000000000000000000000000000000DF
:1001200033020008330200083302000833020008DB
:100130003302000800000000000000000000000082
:100140000000000000000000000000003302000872
:1001500033020008330200083302000833020008AB
:100160003302000833020008000000000000000015
:10017000000000000000000000000000000000007F
:100180000000000033020008000000000000000032
:100190003302000800F002F800F02EF80AA090E800
:1001A000000C82448344AAF10107DA4501D100F032
:1001B00023F8AFF2090EBAE80F0013F0010F18BFD1
:1001C000FB1A43F0010318474C1200005C120000B8
:1001D0000023002400250026103A28BF78C1FBD850
:1001E000520728BF30C148BF0B6070471FB501F0F0
:1001F00003F91FBD10B510BD00F031F81146FFF72F
:10020000F5FF01F095F800F04FF803B4FFF7F2FFA7
:1002100003BC00F057F80000094880470948004730
:10022000FEE7FEE7FEE7FEE7FEE7FEE7FEE7FEE7A6
:10023000FEE7FEE704480549054A064B7047000003
:10024000A11200089501000880000020800600200F
:10025000800200208002002070477047704775467A
:1002600000F02CF8AE4605006946534620F0070022
:10027000854618B020B5FFF7DDFFBDE820404FF000
:1002800000064FF000074FF000084FF0000BAC469F
:10029000ACE8C009ACE8C009ACE8C009ACE8C009EA
:1002A00021F007018D46704710B50446AFF300807A
:1002B0002046BDE81040FFF7A8BF00000048704787
:1002C0000000002001491820ABBEFEE72600020016
:1002D0007047000080B540F26000C2F20000006884
:1002E000804743F61441C4F20101086840F0010060
:1002F000086080BD80B540F26400C2F20000006872
:10030000804743F61441C4F20101086840F002003E
:10031000086080BD80B540F26800C2F2000000684D
:10032000804743F61441C4F20101086840F004001C
:10033000086080BD80B540F26C00C2F20000006829
:10034000804743F61441C4F20101086840F00800F8
:10035000086080BD83B08DF80B008DF80A108DF811
:1003600009209DF80A0007283CD8FFE79DF80B00FC
:100370000146019140B1FFE70198012812D0FFE743
:10038000019802281DD02BE09DF809009DF80A1065
:10039000890000FA01F22021C4F20201086810432A
:1003A00008601EE09DF809009DF80A10890000FA17
:1003B00001F240F22041C4F20201086810430860D3
:1003C0000FE09DF809009DF80A10890000FA01F27B
:1003D00040F62001C4F2020108681043086000E002
:1003E000FFE741E09DF80B000146009140B1FFE7B7
:1003F0000098012814D0FFE70098022821D031E0AE
:100400009DF809009DF80A1001F00701890000FA23
:1004100001F22421C4F2020108681043086022E0BE
:100420009DF809009DF80A1001F00701890000FA03
:1004300001F240F22441C4F202010868104308604E
:1004400011E09DF809009DF80A1001F007018900EC
:1004500000FA01F240F62401C4F2020108681043D8
:10046000086000E0FFE7FFE703B0704785B08DF854
:1004700013008DF812108DF811209DF8110000283E
:1004800056D1FFE79DF813000146039140B1FFE705
:10049000039801281BD0FFE7039802282FD045E0DE
:1004A0009DF812004100032000FA01F20021C4F27D
:1004B00002010868904308609DF811009DF8122021
:1004C000520000FA02F20868104308602FE09DF81D
:1004D00012004100032000FA01F240F20041C4F290
:1004E00002010868904308609DF811009DF81220F1
:1004F000520000FA02F208681043086017E09DF805
:1005000012004100032000FA01F20021C4F20201AE
:100510000868904308609DF811009DF81220520071
:1005200000FA02F208681043086000E0FFE717E1F4
:100530009DF81100012857D1FFE79DF813000146EF
:10054000029140B1FFE7029801281BD0FFE7029813
:1005500002282FD046E09DF812004100032000FA47
:1005600001F20021C4F202010868904308609DF87E
:1005700011009DF81220520000FA02F208681043A0
:10058000086030E09DF812004100032000FA01F2FB
:1005900040F20041C4F202010868904308609DF8EF
:1005A00011009DF81220520000FA02F20868104370
:1005B000086018E09DF812004100032000FA01F2E3
:1005C00040F60001C4F202010868904308609DF8FB
:1005D00011009DF81220520000FA02F20868104340
:1005E000086000E0FFE7BAE09DF81100022857D14B
:1005F000FFE79DF813000146019140B1FFE7019824
:1006000001281BD0FFE7019802282FD046E09DF873
:1006100012004100032000FA01F20021C4F202019D
:100620000868904308609DF811009DF81220520060
:1006300000FA02F208681043086030E09DF81200EA
:100640004100032000FA01F240F20041C4F202012D
:100650000868904308609DF811009DF81220520030
:1006600000FA02F208681043086018E09DF81200D2
:100670004100032000FA01F240F60001C4F2020139
:100680000868904308609DF811009DF81220520000
:1006900000FA02F208681043086000E0FFE75DE03E
:1006A0009DF81100032857D1FFE79DF8130001467C
:1006B000009140B1FFE7009801281BD0FFE70098A8
:1006C00002282FD046E09DF812004100032000FAD6
:1006D00001F20021C4F202010868904308609DF80D
:1006E00011009DF81220520000FA02F2086810432F
:1006F000086030E09DF812004100032000FA01F28A
:1007000040F20041C4F202010868904308609DF87D
:1007100011009DF81220520000FA02F208681043FE
:10072000086018E09DF812004100032000FA01F271
:1007300040F60001C4F202010868904308609DF889
:1007400011009DF81220520000FA02F208681043CE
:10075000086000E0FFE700E0FFE7FFE7FFE7FFE7F3
:1007600005B0704785B08DF813008DF812108DF824
:1007700011209DF81100002856D1FFE79DF81300C5
:100780000146039140B1FFE7039801281BD0FFE722
:10079000039802282FD045E09DF812004100032065
:1007A00000FA01F20821C4F20201086890430860CF
:1007B0009DF811009DF81220520000FA02F208681C
:1007C000104308602FE09DF812004100032000FA5A
:1007D00001F240F20841C4F2020108689043086047
:1007E0009DF811009DF81220520000FA02F20868EC
:1007F0001043086017E09DF812004100032000FA42
:1008000001F20821C4F202010868904308609DF8D3
:1008100011009DF81220520000FA02F208681043FD
:10082000086000E0FFE717E19DF81100012857D1AB
:10083000FFE79DF813000146029140B1FFE70298DF
:1008400001281BD0FFE7029802282FD046E09DF830
:1008500012004100032000FA01F20821C4F2020153
:100860000868904308609DF811009DF8122052001E
:1008700000FA02F208681043086030E09DF81200A8
:100880004100032000FA01F240F20841C4F20201E3
:100890000868904308609DF811009DF812205200EE
:1008A00000FA02F208681043086018E09DF8120090
:1008B0004100032000FA01F240F60801C4F20201EF
:1008C0000868904308609DF811009DF812205200BE
:1008D00000FA02F208681043086000E0FFE7BAE09F
:1008E0009DF81100022857D1FFE79DF8130001463B
:1008F000019140B1FFE7019801281BD0FFE7019863
:1009000002282FD046E09DF812004100032000FA93
:1009100001F20821C4F202010868904308609DF8C2
:1009200011009DF81220520000FA02F208681043EC
:10093000086030E09DF812004100032000FA01F247
:1009400040F20841C4F202010868904308609DF833
:1009500011009DF81220520000FA02F208681043BC
:10096000086018E09DF812004100032000FA01F22F
:1009700040F60801C4F202010868904308609DF83F
:1009800011009DF81220520000FA02F2086810438C
:10099000086000E0FFE75DE09DF81100032857D1F3
:1009A000FFE79DF813000146009140B1FFE7009872
:1009B00001281BD0FFE7009802282FD046E09DF8C1
:1009C00012004100032000FA01F20821C4F20201E2
:1009D0000868904308609DF811009DF812205200AD
:1009E00000FA02F208681043086030E09DF8120037
:1009F0004100032000FA01F240F20841C4F2020172
:100A00000868904308609DF811009DF8122052007C
:100A100000FA02F208681043086018E09DF812001E
:100A20004100032000FA01F240F60801C4F202017D
:100A30000868904308609DF811009DF8122052004C
:100A400000FA02F208681043086000E0FFE700E0E7
:100A5000FFE7FFE7FFE7FFE705B0704783B08DF8DA
:100A60000B008DF80A108DF809209DF80900012867
:100A700036D1FFE79DF80B000146019140B1FFE739
:100A80000198012810D0FFE70198022819D025E02D
:100A90009DF80A10012000FA01F20421C4F20201BB
:100AA0000868104308601AE09DF80A10012000FA57
:100AB00001F240F20441C4F20201086810430860E8
:100AC0000DE09DF80A10012000FA01F240F6040141
:100AD000C4F2020108681043086000E0FFE7FFE786
:100AE0009DF80900B0BBFFE79DF80B00014600919F
:100AF00040B1FFE70098012810D0FFE700980228D6
:100B000019D025E09DF80A10012000FA01F2042115
:100B1000C4F202010868904308601AE09DF80A10C8
:100B2000012000FA01F240F20441C4F20201086817
:100B3000904308600DE09DF80A10012000FA01F2D0
:100B400040F60401C4F2020108689043086000E026
:100B5000FFE7FFE703B0704783B08DF80B008DF817
:100B60000A108DF809209DF80900012836D1FFE709
:100B70009DF80B000146019140B1FFE70198012863
:100B800010D0FFE70198022819D025E09DF80A103F
:100B9000012000FA01F21421C4F202010868104396
:100BA00008601AE09DF80A10012000FA01F240F2F4
:100BB0001441C4F202010868104308600DE09DF87A
:100BC0000A10012000FA01F240F61401C4F20201F9
:100BD00008681043086000E0FFE73AE09DF809006C
:100BE000B0BBFFE79DF80B000146009140B1FFE765
:100BF0000098012810D0FFE70098022819D025E0BE
:100C00009DF80A10012000FA01F21421C4F2020139
:100C10000868904308601AE09DF80A10012000FA65
:100C200001F240F21441C4F20201086890430860E6
:100C30000DE09DF80A10012000FA01F240F61401BF
:100C4000C4F2020108689043086000E0FFE7FFE794
:100C5000FFE703B07047000081B08DF803009DF8F6
:100C60000300552801DBFFE71BE09DF80300400966
:100C70008DF802009DF8030000F01F008DF80100C0
:100C80009DF80110012000FA01F39DF802204EF2B8
:100C90000011CEF2000151F82200184341F8220061
:100CA000FFE701B07047000082B08DF807008DF8B3
:100CB00006108DF8052040F27400C2F200000068B2
:100CC000033801460091042854D80099DFE801F068
:100CD000030E213447009DF8060000019DF807101F
:100CE0004EF20042CEF20002885444E09DF8060025
:100CF00040019DF807104EF20042CEF200028854E7
:100D00009DF805309DF80710885C40EA0310885470
:100D100031E09DF8060080019DF807104EF2004278
:100D2000CEF2000288549DF805309DF80710885CCB
:100D300040EA031088541EE09DF80600C0019DF8AB
:100D400007104EF20042CEF2000288549DF80530A2
:100D50009DF80710885C40EA031088540BE09DF86A
:100D6000050000019DF807104EF20042CEF200028D
:100D7000885400E0FFE702B07047000082B08DF8B1
:100D800007009DF8071040F2FA5040EA0120009059
:100D900000984EF60C51CEF20001086002B0704788
:100DA00082B08DF807009DF80700014600914728A2
:100DB00000F274810099DFE811F0480051005A00F8
:100DC00063006C00710171017500710171017101A5
:100DD00071017E0071017101710171017101710177
:100DE00071017101870090009900A200AB00B4006E
:100DF000BD00710171017101710171017101710118
:100E0000C60071017101CF00D8007101E1007101CC
:100E100071017101EA00F300FC00710171017101BF
:100E2000710105010E0171017101710117012001AC
:100E30007101710129017101710132013B0144010C
:100E40004D01710156015F01680143F63001C4F2A2
:100E50000201086840F00100086020E143F630011B
:100E6000C4F20201086840F00200086017E143F68E
:100E70003001C4F20201086840F0040008600EE18D
:100E800043F63001C4F20201086840F0080008602F
:100E900005E143F63001C4F20201086840F0100099
:100EA0000860FCE043F63001C4F20201086840F03B
:100EB00080000860F3E043F63001C4F202010868E4
:100EC00040F480500860EAE043F63001C4F20201C9
:100ED000086840F400100860E1E043F63001C4F215
:100EE0000201086840F480000860D8E043F634014D
:100EF000C4F20201086840F080000860CFE043F6C9
:100F00004001C4F20201086840F001000860C6E038
:100F100043F64001C4F20201086840F00200086094
:100F2000BDE043F64001C4F20201086840F004004D
:100F30000860B4E043F64001C4F20201086840F0E2
:100F400008000860ABE043F64001C4F20201086803
:100F500040F400600860A2E043F64001C4F20201E0
:100F6000086840F48040086099E043F64001C4F20C
:100F70000201086840F40040086090E043F6400138
:100F8000C4F20201086840F40030086087E043F6CC
:100F90004001C4F20201086840F4001008607EE0DD
:100FA00043F64001C4F20201086840F48000086082
:100FB00075E043F64001C4F20201086840F4000005
:100FC00008606CE043F64001C4F20201086840F09A
:100FD0008050086063E043F64401C4F202010868EF
:100FE00040F0010008605AE043F64401C4F20201F7
:100FF000086840F01000086051E043F64401C4F274
:101000000201086840F02000086048E043F644010F
:10101000C4F20201086840F4807008603FE043F6C3
:101020004401C4F20201086840F40060086036E040
:1010300043F64401C4F20201086840F4805008609D
:101040002DE043F64401C4F20201086840F4005068
:10105000086024E043F64401C4F20201086840F449
:10106000804008601BE043F64401C4F202010868B6
:1010700040F48030086012E043F64401C4F20201FB
:10108000086840F40030086009E043F64401C4F207
:101090000201086840F48020086000E0FFE702B029
:1010A0007047000043F60001C4F20201086820F412
:1010B0008020086043F60802C4F20202106840F083
:1010C00001001060106820F002001060086840F411
:1010D000803008607047000080B582B001904EF209
:1010E0001001CEF20001086820F0020008600198AB
:1010F0004FF47A51484300F00DF8FFE74EF210002C
:10110000CEF200000068000CC00708B9FFE7F5E761
:1011100002B080BD81B000904EF21801CEF2000105
:101120000020086000984EF21401CEF20001086021
:101130004EF21001CEF20001086840F00100086094
:1011400001B0704781B00020ADF802008DF80100B9
:10115000FFE741F20000C4F2010000684009C00747
:1011600088B9FFE7BDF802000130ADF80200BDF814
:10117000020042F21071884204D1FFE7FF208DF88F
:10118000010000E0E5E741F20400C4F2010000685C
:101190008DF801009DF8010001B0704781B000900A
:1011A000009840F27801C2F20001086001B0704777
:1011B00041F20C01C4F20101086840F400500860DB
:1011C0007047000041F20801C4F201018B20086061
:1011D00041F20C01C4F20101086820F400400860EB
:1011E000086820F480500860086820F48060086077
:1011F00041F21002C4F20102106820F48050106025
:10120000106820F400501060086840F00800086082
:10121000086840F004000860086820F020000860BA
:101220007047000041F20C01C4F20101086840F06F
:10123000200008607047000082B001908DF8031014
:1012400000208DF80200FFE79DF802009DF80310D2
:1012500088421BDAFFE701989DF80210405C41F2DA
:101260000401C4F201010860FFE741F20000C4F28A
:1012700001000068C009C00708B9FFE7F5E7FFE70C
:101280009DF8020001308DF80200DDE702B07047E2
:1012900080B540F27000C2F200000068804780BD57
:1012A0004EF68851CEF20001086840F470000860E4
:1012B0007047000080B540F27800C2F2000000687C
:1012C000804741F20001C4F201010020086080BDA6
:1012D00080B582B0FFF736FF8DF807009DF8070054
:1012E000012822D1FFE7002101220846FFF734FC44
:1012F0004FF4FA70FFF7F0FEFFF724FF01280DD13D
:10130000FFE701218DF806100DF10600FFF794FFAD
:10131000002210461146FFF71FFC05E00022104690
:101320001146FFF719FCFFE7FFE702B080BD0000A0
:1013300080B58AB000220692099208900791FFF7C3
:10134000B1FE0698FFF72CFD01200390FFF728FD62
:101350003920FFF725FD4320FFF722FD039A069968
:101360000846FFF783F8039A06990846FFF7FAF94B
:10137000069A10461146FFF771FB0398062101916A
:1013800002220292FFF772F8019903980722049251
:10139000FEF7E0FF029A03980499FFF767F80398B5
:1013A000049A1146FEF7D6FFFFF70CFFFFF700FF88
:1013B000FFF738FF41F2D120C0F60000FFF7EEFE44
:1013C00025200590FFF748FC0320FFF7D7FC059880
:1013D000069A1146FFF768FCFFE740F27C00C2F274
:1013E00000000078012806D1FFE700200122114605
:1013F000FFF7B2FBFFE7F0E7F1EE100A4FF6FF71DF
:10140000C0F2C03120EA010040F04070E1EE100A65
:10141000704700002414000800000020800600002F
:04142000D0010008EF
:0400000508000219D4
:00000001FF
