:020000040800F2
:1000000000000120C91900080B1800081118000889
:10001000171800081D180008231800080000000029
:100020000000000000000000000000002918000887
:100030003718000800000000451800085318000891
:10004000191A0008191A0008191A0008191A0008C4
:10005000191A0008191A0008191A0008191A0008B4
:10006000191A0008191A0008191A0008191A0008A4
:10007000191A0008191A0008191A0008191A000894
:10008000191A0008191A0008191A000800000000BF
:10009000000000000000000000000000191A000825
:1000A000191A0008191A0008191A0008191A000864
:1000B000191A0008191A0008191A0008191A000854
:1000C000191A0008191A0008191A0008191A000844
:1000D000191A0008191A0008191A0008000000006F
:1000E000191A0008191A0008191A0008000000005F
:1000F000000000000000000000000000191A0008C5
:1001000000000000191A0008191A0008191A00083E
:1001100000000000000000000000000000000000DF
:10012000191A0008191A0008191A0008191A0008E3
:10013000191A000800000000000000000000000084
:10014000000000000000000000000000191A000874
:10015000191A0008191A0008191A0008191A0008B3
:10016000191A0008191A0008000000000000000019
:10017000000000000000000000000000000000007F
:1001800000000000191A0008000000000000000034
:04019000191A000830
:1001A00010B5054C237833B9044B13B10448AFF3B1
:1001B00000800123237010BD6C00002000000000AF
:1001C0008C28000808B5034B1BB103490348AFF363
:1001D000008008BD00000000700000208C2800088E
:1001E00001F0FF01102A2BDB10F0070F08D010F8E8
:1001F000013B013A8B422DD010F0070F42B3F6D1EC
:10020000F0B441EA012141EA014122F007047FF004
:1002100000070023F0E80256083C85EA010586EA5B
:10022000010685FA47F5A3FA87F586FA47F6A5FA97
:1002300087F68EB9EED1F0BC01F0FF0102F00702A3
:1002400032B110F8013B013A83EA010313B1F8D14E
:100250000020704701387047002D06BF354603382F
:10026000073815F0010F07D1013015F4807F02BF68
:10027000013015F4C03F0130F0BC0138704700BFB9
:1002800081F0004102E000BF83F0004330B54FEA47
:1002900041044FEA430594EA050F08BF90EA020FB4
:1002A0001FBF54EA000C55EA020C7FEA645C7FEA47
:1002B000655C00F0E2804FEA5454D4EB5555B8BF6A
:1002C0006D420CDD2C4480EA020281EA030382EADB
:1002D000000083EA010180EA020281EA0303362D6D
:1002E00088BF30BD11F0004F4FEA01314FF4801C40
:1002F0004CEA113102D0404261EB410113F0004F52
:100300004FEA03334CEA133302D0524263EB430308
:1003100094EA050F00F0A780A4F10104D5F1200EA6
:100320000DDB02FA0EFC22FA05F2801841F1000101
:1003300003FA0EF2801843FA05F359410EE0A5F1D5
:1003400020050EF1200E012A03FA0EFC28BF4CF006
:10035000020C43FA05F3C01851EBE37101F00045BC
:1003600007D54FF0000EDCF1000C7EEB00006EEBC9
:100370000101B1F5801F1BD3B1F5001F0CD3490853
:100380005FEA30004FEA3C0C04F101044FEA4452AA
:1003900012F5800F80F09A80BCF1004F08BF5FEA31
:1003A000500C50F1000041EB045141EA050130BD11
:1003B0005FEA4C0C404141EB0101013C28BFB1F523
:1003C000801FE9D291F0000F04BF01460020B1FA6E
:1003D00081F308BF2033A3F10B03B3F120020CDA41
:1003E0000C3208DD02F1140CC2F10C0201FA0CF01F
:1003F00021FA02F10CE002F11402D8BFC2F1200C84
:1004000001FA02F120FA0CFCDCBF41EA0C01904039
:10041000E41AA2BF01EB0451294330BD6FEA040482
:100420001F3C1CDA0C340EDC04F11404C4F120026D
:1004300020FA04F001FA02F340EA030021FA04F37F
:1004400045EA030130BDC4F10C04C4F1200220FAD6
:1004500002F001FA04F340EA0300294630BD21FA14
:1004600004F0294630BD94F0000F83F4801306BFDA
:1004700081F480110134013D4EE77FEA645C18BFCE
:100480007FEA655C29D094EA050F08BF90EA020F65
:1004900005D054EA000C04BF1946104630BD91EA5D
:1004A000030F1EBF0021002030BD5FEA545C05D160
:1004B0004000494128BF41F0004130BD14F580049F
:1004C0003CBF01F5801130BD01F0004545F0FE4113
:1004D00041F470014FF0000030BD7FEA645C1ABF48
:1004E000194610467FEA655C1CBF0B46024650EA7F
:1004F000013406BF52EA033591EA030F41F40021AB
:1005000030BD00BF90F0000F04BF0021704730B530
:100510004FF4806404F132044FF000054FF0000105
:1005200050E700BF90F0000F04BF0021704730B5C6
:100530004FF4806404F1320410F0004548BF40429B
:100540004FF000013EE700BF42004FEAE2014FEAF0
:1005500031014FEA02701FBF12F07F4393F07F4FCB
:1005600081F06051704732F07F4208BF704793F0CE
:100570007F4F04BF41F40021704730B54FF46074E1
:1005800001F0004521F000411CE700BF50EA0102E4
:1005900008BF704730B54FF000050AE050EA01028D
:1005A00008BF704730B511F0004502D5404261EBFD
:1005B00041014FF4806404F132045FEA915C3FF43E
:1005C000D8AE4FF003025FEADC0C18BF03325FEADB
:1005D000DC0C18BF033202EBDC02C2F1200300FA8C
:1005E00003FC20FA02F001FA03FE40EA0E0021FAB1
:1005F00002F11444BDE600BF70B54FF0FF0C4CF49F
:10060000E06C1CEA11541DBF1CEA135594EA0C0F50
:1006100095EA0C0F00F0DEF82C4481EA030621EA8B
:100620004C5123EA4C5350EA013518BF52EA0335C6
:1006300041F4801143F4801338D0A0FB02CE4FF078
:100640000005E1FB02E506F00042E0FB03E54FF0A8
:100650000006E1FB03569CF0000F18BF4EF0010EA0
:10066000A4F1FF04B6F5007F64F5407404D25FEA9C
:100670004E0E6D4146EB060642EAC62141EA55514F
:100680004FEAC52040EA5E504FEACE2EB4F1FD0C91
:1006900088BFBCF5E06F1ED8BEF1004F08BF5FEA0F
:1006A000500E50F1000041EB045170BD06F00046C1
:1006B00046EA010140EA020081EA0301B4EB5C046E
:1006C000C2BFD4EB0C0541EA045170BD41F4801166
:1006D0004FF0000E013C00F3AB8014F1360FDEBF8B
:1006E000002001F0004170BDC4F10004203C35DA67
:1006F0000C341BDC04F11404C4F1200500FA05F3EA
:1007000020FA04F001FA05F240EA020001F000428A
:1007100021F0004110EBD37021FA04F642EB060100
:100720005EEA430E08BF20EAD37070BDC4F10C042A
:10073000C4F1200500FA04F320FA05F001FA04F2EE
:1007400040EA020001F0004110EBD37041F10001DA
:100750005EEA430E08BF20EAD37070BDC4F12005E5
:1007600000FA05F24EEA020E20FA04F301FA05F24D
:1007700043EA020321FA04F001F0004121FA04F2F5
:1007800020EA020000EBD3705EEA430E08BF20EAC5
:10079000D37070BD94F0000F0FD101F000464000FF
:1007A00041EB010111F4801F08BF013CF7D041EA81
:1007B000060195F0000F18BF704703F00046520085
:1007C00043EB030313F4801F08BF013DF7D043EA56
:1007D0000603704794EA0C0F0CEA135518BF95EA0C
:1007E0000C0F0CD050EA410618BF52EA4306D1D193
:1007F00081EA030101F000414FF0000070BD50EAB2
:10080000410606BF1046194652EA430619D094EA3B
:100810000C0F02D150EA013613D195EA0C0F05D125
:1008200052EA03361CBF104619460AD181EA030179
:1008300001F0004141F0FE4141F470014FF0000031
:1008400070BD41F0FE4141F4780170BD70B54FF0CC
:10085000FF0C4CF4E06C1CEA11541DBF1CEA13554C
:1008600094EA0C0F95EA0C0F00F0A7F8A4EB05042E
:1008700081EA030E52EA03354FEA013100F0888025
:100880004FEA03334FF0805545EA131343EA1263EE
:100890004FEA022245EA111545EA10654FEA0026A3
:1008A0000EF000419D4208BF964244F1FD0404F55C
:1008B000407402D25B084FEA3202B61A65EB0305B8
:1008C0005B084FEA32024FF480104FF4002CB6EB75
:1008D000020E75EB030E22BFB61A754640EA0C00F5
:1008E0005B084FEA3202B6EB020E75EB030E22BF35
:1008F000B61A754640EA5C005B084FEA3202B6EB76
:10090000020E75EB030E22BFB61A754640EA9C0034
:100910005B084FEA3202B6EB020E75EB030E22BF04
:10092000B61A754640EADC0055EA060E18D04FEAC2
:10093000051545EA16754FEA06164FEAC30343EA62
:1009400052734FEAC2025FEA1C1CC0D111F4801F2F
:100950000BD141EA00014FF000004FF0004CB6E728
:1009600011F4801F04BF01430020B4F1FD0C88BFC7
:10097000BCF5E06F3FF6AFAEB5EB030C04BFB6EBD2
:10098000020C5FEA500C50F1000041EB045170BDC5
:100990000EF0004E4EEA113114EB5C04C2BFD4EBF2
:1009A0000C0541EA045170BD41F480114FF0000E76
:1009B000013C90E645EA060E8DE60CEA135594EAF2
:1009C0000C0F08BF95EA0C0F3FF43BAF94EA0C0FF5
:1009D0000AD150EA01347FF434AF95EA0C0F7FF46A
:1009E00025AF104619462CE795EA0C0F06D152EABE
:1009F00003353FF4FDAE1046194622E750EA4106A2
:100A000018BF52EA43067FF4C5AE50EA41047FF4B2
:100A10000DAF52EA43057FF4EBAE12E74FEA410215
:100A2000B2F1E04324BFB3F5001CDCF1FE5C0DD94C
:100A300001F0004C4FEAC0024CEA5070B2F1004F96
:100A400040EB830008BF20F00100704711F0804F99
:100A500021D113F13872BCBF01F00040704741F45E
:100A600080114FEA5252C2F11802C2F1200C10FA62
:100A70000CF320FA02F018BF40F001004FEAC12346
:100A80004FEAD32303FA0CFC40EA0C0023FA02F3EA
:100A90004FEA4303CCE77FEA625307D150EA0133C0
:100AA0001EBF4FF0FE4040F44000704701F0004090
:100AB00040F0FE4040F40000704700BF80B500AF3A
:100AC0000321082000F0A2FD0B220021002000F0ED
:100AD00047F80F4B00225A600D4B00229A600C4BD6
:100AE0009B680B4A23F400639360094B5B68084AD8
:100AF00023F040735360064B054A5B685360044B18
:100B00009B68034A43F00103936000BF80BD00BFB0
:100B10000020014080B483B000AF78600F4A7B684A
:100B200003F01F03D3620D4B9B680C4A43F08043D4
:100B3000936000BF094B1B6803F00203002BF9D040
:100B4000064BDB6C07EE903AF8EE677AB0EE670A78
:100B50000C37BD465DF8047B704700BF00200140A4
:100B600080B483B000AF0346FB710B46BB711346E4
:100B70007B717B79002B08D07B79012B05D07B79A9
:100B80000A2B02D07B790B2B54D1FB79022B38D066
:100B9000022B4FDC002B02D0012B19D04AE0294B4D
:100BA0001B68BA795200032101FA02F2D2431146BE
:100BB000244A0B401360234B1B687979BA795200A1
:100BC00001FA02F211461F4A0B431360002332E080
:100BD0001D4B1B68BA795200032101FA02F2D2437D
:100BE0001146194A0B401360174B1B687979BA7983
:100BF000520001FA02F21146134A0B43136000231C
:100C000019E0104B1B68BA795200032101FA02F275
:100C1000D24311460B4A0B4013600A4B1B6879798B
:100C2000BA79520001FA02F21146064A0B431360E8
:100C3000002300E0042318460C37BD465DF8047B12
:100C4000704700BF000002400004024080B483B03F
:100C500000AF0346FB710B46BB7113467B717B797A
:100C6000012B2AD1FB79022B1CD0022B53DC002B49
:100C700002D0012B0BD04EE02A4B5B69BA790121DF
:100C800001FA02F21146274A0B43536143E0264B17
:100C90005B69BA79012101FA02F21146224A0B433B
:100CA000536138E01F4B5B69BA79012101FA02F206
:100CB00011461C4A0B4353612DE0FB79022B1ED0D9
:100CC000022B28DC002B02D0012B0CD023E0154B8B
:100CD0005B69BA79012101FA02F2D2431146114A45
:100CE0000B40536117E0104B5B69BA79012101FA9F
:100CF00002F2D24311460C4A0B4053610BE0094B00
:100D00005B69BA79012101FA02F2D2431146054A20
:100D10000B40536100BF00BF0C37BD465DF8047B3C
:100D2000704700BF000002400004024080B582B05E
:100D300000AF0023FB715CE14FF4967000F0FCFC07
:100D4000FA79B04913465B0013449B000B441B78AF
:100D5000C3F34013DBB2012B40F09180FA79A9492B
:100D600013465B0013449B000B441B78C3F3000342
:100D7000DBB2DB005BB243F0300359B2FA79A14831
:100D800013465B0013449B0003441B78C3F34003EA
:100D9000DBB29B005BB20B435BB2BB71BA79FB79F0
:100DA0001146184600F06CFA142000F0C5FCFA79E0
:100DB000944913465B0013449B000B441B78C3F318
:100DC0008003DBB29B005BB243F0080359B2FA79AF
:100DD0008C4813465B0013449B0003441B78C3F309
:100DE000C003DBB25B005BB20B4359B2FA798548B2
:100DF00013465B0013449B0003441B78C3F30013AA
:100E0000DBB25BB20B435BB2BB71BA79FB791146C3
:100E1000184600F035FA142000F08EFCFB79012111
:100E2000184600F02DFA142000F086FCFA79754976
:100E300013465B0013449B000B441B78C3F38013E1
:100E4000DBB25B005BB243F0040359B2FA796D4840
:100E500013465B0013449B0003441B78C3F3C01389
:100E6000DBB25BB20B435BB2BB71BA79FB79114663
:100E7000184600F005FA142000F05EFCB6E0FB799D
:100E80002021184600F0FCF9142000F055FCFB79F5
:100E90002021184600F0F4F9142000F04DFCFA79F6
:100EA000584913465B0013449B000B441B78C3F363
:100EB0000003DBB2DB0159B2FA79524813465B00FA
:100EC00013449B0003441B78C3F34003DBB29B0134
:100ED0005BB20B435BB2BB71BA79FB791146184622
:100EE00000F0CEF9142000F027FCFB790021184611
:100EF00000F0C6F9142000F01FFCFA7941491346AE
:100F00005B0013449B000B441B78C3F38003DBB2EC
:100F10009B015BB263F07F0359B2FA7939481346FB
:100F20005B0013449B0003441B78C3F3C003DBB294
:100F30005B015BB20B4359B2FA79324813465B004E
:100F400013449B0003441B78C3F30013DBB21B0163
:100F50005BB20B435BB2BB71BA79FB7911461846A1
:100F600000F08EF9142000F0E7FBFB790021184611
:100F700000F086F9142000F0DFFBFB791021184601
:100F800000F07EF9142000F0D7FBFB790021184611
:100F900000F076F9142000F0CFFBFA7919491346D6
:100FA0005B0013449B000B441B78C3F38013DBB23C
:100FB0005B015BB243F0400359B2FA791148134622
:100FC0005B0013449B0003441B78C3F3C013DBB2E4
:100FD0001B015BB20B435BB2BB71BA79FB79114663
:100FE000184600F04DF9142000F0A6FBFB79013300
:100FF000FB71FB79002B3FF49FAE00BF00BF0837A9
:10100000BD4680BD0000002080B584B000AF03461F
:101010000A46FB711346BB710023FB73FA799749AB
:1010200013465B0013449B000B4403331B780F2BC8
:101030000ED8FA79914913465B0013449B000B4488
:1010400003331B78012219460020FFF7FFFD0FE054
:10105000FA798A4913465B0013449B000B4403331F
:101060001B78103BDBB2012219460120FFF7EEFD91
:10107000FA79824913465B0013449B000B44023308
:101080001B780F2B0ED8FA797C4913465B0013446A
:101090009B000B4402331B78002219460020FFF707
:1010A000D5FD0FE0FA79754913465B0013449B00A8
:1010B0000B4402331B78103BDBB20022194601209F
:1010C000FFF7C4FDFA796D4913465B0013449B009A
:1010D0000B441B78C3F34013DBB2012B47D1002331
:1010E000BB7340E0FA79B97B644813465B00134454
:1010F0009B0003440B4404331B780F2B17D8FA7959
:10110000B97B5E4813465B0013449B0003440B44C9
:1011100004331978BA79BB7B42FA03F3DBB203F0EC
:101120000103DBB21A460020FFF790FD18E0FA79C0
:10113000B97B524813465B0013449B0003440B44A5
:1011400004331B78103BD9B2BA79BB7B42FA03F364
:10115000DBB203F00103DBB21A460120FFF776FD94
:10116000BB7B0133BB73BB7B072BBBD956E0FA7942
:10117000424913465B0013449B000B441B78C3F3A6
:101180004013DBB2002B47D10423BB7340E0FA7954
:10119000B97B3A4813465B0013449B0003440B445D
:1011A00004331B780F2B17D8FA79B97B33481346D1
:1011B0005B0013449B0003440B4404331978BA7951
:1011C000BB7B42FA03F3DBB203F00103DBB21A4646
:1011D0000020FFF73BFD18E0FA79B97B274813465A
:1011E0005B0013449B0003440B4404331B78103B07
:1011F000D9B2BA79BB7B42FA03F3DBB203F0010345
:10120000DBB21A460120FFF721FDBB7B0133BB7324
:10121000BB7B072BBBD901E00423FB73FA79174989
:1012200013465B0013449B000B4403331B780F2BC6
:101230000ED8FA79114913465B0013449B000B4406
:1012400003331B78002219460020FFF7FFFC0FE054
:10125000FA790A4913465B0013449B000B4403339D
:101260001B78103BDBB2002219460120FFF7EEFC91
:10127000FB7B18461037BD4680BD00BF0000002034
:1012800080B584B000AF03460A46FB711346BB71BC
:101290000023FB73FB79002B32D1FA791C491346EA
:1012A0005B0013449B000B4401331B780F2B0ED8BB
:1012B000FA79174913465B0013449B000B44013332
:1012C0001B78002219460020FFF7C0FC0FE0FA79D6
:1012D0000F4913465B0013449B000B4401331B78FA
:1012E000103BDBB2002219460120FFF7AFFCBA79B0
:1012F000FB7911461846FFF787FE0346FB7301E0B2
:101300000223FB73FB7B18461037BD4680BD00BF30
:101310000000002080B584B000AF03460A46FB7190
:101320001346BB710023FB73FB79002B30D1FA7994
:101330001B4913465B0013449B000B4401331B788D
:101340000F2B0ED8FA79164913465B0013449B0005
:101350000B4401331B78012219460020FFF776FC6D
:101360000FE0FA790E4913465B0013449B000B44CF
:1013700001331B78103BDBB2012219460120FFF735
:1013800065FCBA79FB7911461846FFF73DFE01E08E
:101390000223FB73FB7B18461037BD4680BD00BFA0
:1013A000000000202DE9F0438DB000AF034687ED2B
:1013B000000AFB716B461E460023FB62D7ED007AE4
:1013C000F5EEC07AF1EE10FA07D50123FB62D7EDF6
:1013D000007AF1EE677AC7ED007AD7ED007AFDEE7C
:1013E000E77A17EE903ABB6201237B620AE07B6AE0
:1013F00001337B62BB6A524A82FB03129210DB17F5
:10140000D31ABB62BB6A0933122BF0D8FB6A002BDC
:1014100002D07B6A01337B62796A4B1E7B610A468C
:101420000023904699464FF000024FF000034FEA28
:10143000C90343EA58734FEAC8020A460023144618
:101440001D464FF000024FF00003EB0043EA5473D7
:10145000E2000B460733DB08DB00ADEB030D6B4608
:1014600000333B6100233B62D7ED007AFDEEE77A63
:1014700017EE901A324B83FB01239A10CB17D21A26
:1014800013469B0013445B00CA1AD2B23B6A591C34
:1014900039623032D1B23A69D15497ED007AF2EE26
:1014A000046AC7EE267AC7ED007AD7ED007AFDEE22
:1014B000E77A17EE903A002BD6D1FB6A002B04D0C6
:1014C0003A693B6A13442D221A700023FB613B6A80
:1014D000BB6118E03A69FB6913441B78FB733A69F6
:1014E000BB69134419783A69FB6913440A461A70B8
:1014F0003A69BB691344FA7B1A70FB690133FB61DB
:10150000BB69013BBB61FA69BB699A42E2DB00231C
:10151000FB610BE03A69FB6913441A78FB791146C9
:101520001846FFF7F7FEFB690133FB61FA693B6A76
:101530009A42EFDDB54600BF3437BD46BDE8F083C3
:10154000676666660000000080B584B000AF0346A1
:10155000FB80FB8807EE903AB8EE677ADFED126AFF
:10156000C7EE267AB1EE047A67EE877AC7ED037A82
:10157000F868FEF7E9FF0AA3D3E90023FFF766F94D
:1015800002460B4610461946FFF748FA0346FB6031
:10159000FB6807EE903AB0EE670A1037BD4680BD93
:1015A0007B14AE47E17A843F0000804580B400AFF1
:1015B000154B1B68144A43F00103136000BF124B24
:1015C0001B6803F00203002BF9D00F4B9B680E4AF7
:1015D00023F0010393600C4B9B680B4A23F002033A
:1015E000936000BF084B1B6803F00403002BF9D184
:1015F000054B1B6803F00803002BF3D100BF00BFAD
:10160000BD465DF8047B70470038024080B582B06B
:1016100000AF03460A46FB711346BB71BB79032B2F
:1016200036D801A252F823F0391600084F160008E8
:10163000651600087B160008194B1B6BFA7901210F
:1016400001FA02F21146164A0B43136324E0144BCD
:101650005B6BFA79012101FA02F21146104A0B4341
:10166000536319E00E4B1B6CFA79012101FA02F267
:1016700011460B4A0B4313640EE0094B5B6CFA797D
:10168000012101FA02F21146054A0B43536403E0BB
:10169000044800F087FA00BF00BF0837BD4680BD90
:1016A00000380240A428000880B400AF054B1B6836
:1016B000044A23F00403136000BFBD465DF8047BB9
:1016C000704700BF10E000E080B400AF054B1B681E
:1016D000044A43F00203136000BFBD465DF8047B7B
:1016E000704700BF10E000E080B483B000AF7860C6
:1016F000084A7B685360074B00229A60054B1B68C1
:10170000044A43F00103136000BF0C37BD465DF887
:10171000047B704710E000E080B400AF054B1B680D
:101720001B0CDBB203F00103DBB21846BD465DF8CB
:10173000047B704710E000E080B584B000AF7860B3
:10174000104B1B68FB600F4B1B680E4A23F0020313
:1017500013607B684FF4FA6202FB03F31846FFF74D
:10176000C3FF00BFFFF7D8FF0346002BFAD0FB688A
:1017700003F00203002B01D0FFF7A6FF00BF1037D4
:10178000BD4680BD10E000E080B582B000AFFFF73D
:101790000DFF00210020FFF739FFFFF78FF9FFF75A
:1017A00083FF01237B6009E07B68DBB201221946DD
:1017B0000020FFF7D5F97B6801337B607B680B2B3A
:1017C000F2DDFFF7B3FA4FF000033B600020FFF7B4
:1017D000A1F987ED000AD7ED007AFCEEE77A17EE63
:1017E000903A9BB21846FFF7AFFEF0EE407AB0EEAB
:1017F000670A0020FFF7D6FD4FF4FA70FFF79CFF51
:1018000001210020FFF73CFDE0E780B400AFFEE7D8
:1018100080B400AFFEE780B400AFFEE780B400AF55
:10182000FEE780B400AFFEE780B400AF00BFBD4666
:101830005DF8047B704780B400AF00BFBD465DF823
:10184000047B704780B400AF00BFBD465DF8047BE9
:10185000704780B500AF00F0E1F800BF80BD80B5F3
:1018600086B000AFF860B9607A6000237B610AE05F
:10187000AFF300800146BB685A1CBA60CAB21A7046
:101880007B6901337B617A697B689A42F0DB7B6814
:1018900018461837BD4680BD80B586B000AFF860E9
:1018A000B9607A6000237B6109E0BB685A1CBA60AA
:1018B0001B781846AFF300807B6901337B617A693E
:1018C0007B689A42F1DB7B6818461837BD4680BDBD
:1018D00080B483B000AF78604FF0FF3318460C3708
:1018E000BD465DF8047B704780B483B000AF78607C
:1018F00039603B684FF400525A60002318460C3799
:10190000BD465DF8047B704780B483B000AF78605B
:10191000012318460C37BD465DF8047B704780B440
:1019200085B000AFF860B9607A60002318461437BC
:10193000BD465DF8047B704780B586B000AF786027
:10194000144A154BD31A7B617B693B61134B1B68AF
:10195000002B02D1114B124A1A60104B1A687B6897
:1019600013443A699A4207D200F0C0F903460C22A8
:101970001A604FF0FF3309E0084B1B68FB60074B10
:101980001A687B681344054A1360FB6818461837C9
:10199000BD4680BD0000012000040000880000203A
:1019A000E001002080B400AF064BD3F88830054A30
:1019B00043F47003C2F8883000BFBD465DF8047B75
:1019C000704700BF00ED00E0DFF834D00D480E494D
:1019D0000E4A002302E0D458C4500433C4188C4289
:1019E000F9D30B4A0B4C002301E013600432A242EE
:1019F000FBD3FFF7D7FF00F07FF9FFF7C5FE704775
:101A000000000120000000206C00002000290008D8
:101A10006C000020DC010020FEE7000080B400AF75
:101A2000064B1B781A46064B1B681344044A136086
:101A300000BFBD465DF8047B704700BF0C0000206E
:101A40008C000020002310B50446C0E90033C0E933
:101A50000433836081814366C28183611946082211
:101A60005C3000F0F4F8054B6362054BA362054B54
:101A7000E362054B2462236310BD00BFC91B00084D
:101A8000EB1B0008231C0008471C0008024A0349FE
:101A9000034800F069B800BF10000020E9250008E5
:101AA0001C00002041680C4B994210B5044601D03F
:101AB00000F09AFDA168094B994202D0204600F03F
:101AC00093FDE168064B994204D02046BDE81040E2
:101AD00000F08ABD10BD00BF90000020F80000207B
:101AE0006001002010B50B4B0B4C0C4A1A602046CD
:101AF00000220421FFF7A6FF04F16800012209215A
:101B0000FFF7A0FF04F1D0000222BDE8104012212F
:101B1000FFF798BFC8010020900000208D1A000830
:101B2000014800F00DB900BFD1010020014800F0CC
:101B300008B900BFD101002010B50446FFF7F0FF3F
:101B4000236A1BB1BDE81040FFF7F0BF044B2362CE
:101B5000044B1B68002BF5D1FFF7C4FFF2E700BF71
:101B6000A51A0008C80100202DE9F8430746884659
:101B700014460026D4E90195B9F1010905D5246878
:101B8000002CF7D13046BDE8F883AB89012B07D98B
:101B9000B5F90E30013303D029463846C047064315
:101BA0006835E9E70FB407B5064904AB086853F890
:101BB000042B8168019300F0E7F903B05DF804EBB2
:101BC00004B070476800002010B50C46B1F90E1043
:101BD00000F068F80028ABBF636DA3891B1823F4DD
:101BE0008053ACBF6365A38110BD2DE9F0411F4652
:101BF0008B89DB0505460C46164605D5B1F90E1056
:101C00000223002200F03CF8A389B4F90E1023F45B
:101C10008053A38132463B462846BDE8F04100F0A0
:101C200053B810B50C46B1F90E1000F029F8431C5A
:101C3000A38915BF606523F4805343F48053A381C7
:101C400018BFA38110BDB1F90E1000F009B802440D
:101C50000346934200D1704703F8011BF9E70000E7
:101C600038B5064D0023044608462B60FFF730FECA
:101C7000431C02D12B6803B1236038BDCC01002086
:101C800038B5074D04460846114600222A601A4618
:101C9000FFF745FE431C02D12B6803B1236038BD1A
:101CA000CC01002038B5074D0446084611460022F5
:101CB0002A601A46FFF7D3FD431C02D12B6803B1FB
:101CC000236038BDCC01002038B5074D04460846D6
:101CD000114600222A601A46FFF7DEFD431C02D19E
:101CE0002B6803B1236038BDCC010020014B18687C
:101CF000704700BF6800002070B50D4D0D4C641B8F
:101D0000A4100026A64209D10B4D0C4C00F0BEFDDC
:101D1000641BA4100026A64205D170BD55F8043BF3
:101D200098470136EEE755F8043B98470136F2E74D
:101D3000F8280008F8280008F8280008FC280008FF
:101D40007047704737B5002944D051F8043C0190E2
:101D5000002BA1F10404B8BFE41800F0DFF81E4A1C
:101D60000198136833B96360146003B0BDE8304074
:101D700000F0DAB8A34208D9256861198B4201BF87
:101D800019685B6849192160EDE71A465B680BB179
:101D9000A342FAD911685518A5420BD124682144F1
:101DA0005418A3421160E0D11C685B6853600C4476
:101DB0001460DAE702D90C230360D6E725686119BD
:101DC0008B4204BF19685B68636004BF49192160D6
:101DD0005460CAE703B030BDD401002070B50E4E88
:101DE0000C463168054611B900F0BCFC3060214654
:101DF000284600F0B7FC431C0AD0C41C24F003049E
:101E0000A04207D0211A284600F0ACFC013001D1D5
:101E10004FF0FF34204670BDD80100202DE9F84373
:101E2000CD1C25F0030508350C2D38BF0C25002DE1
:101E3000074601DBA94205D90C233B60002630464A
:101E4000BDE8F883DFF8D08000F068F8D8F80030FB
:101E50001C465CBB29463846FFF7C0FF431C0446BE
:101E600055D1D8F800402646002E45D1002C48D048
:101E700023683146384604EB030900F073FC8145C2
:101E80003FD121686D1A29463846FFF7A7FF013078
:101E900037D023682B442360D8F80030002B38D08B
:101EA0005A68A2422BD100225A600FE02268521BCE
:101EB0001FD40B2A17D96119A342256018BF596096
:101EC000636808BFC8F8001062514B60384604F1DF
:101ED0000B0600F029F826F00706231DF21AAED0F3
:101EE0009B1BA350ABE7A3426268DDD1C8F800207A
:101EF000ECE723466468ACE734467668B4E71346FB
:101F0000CCE70C233B60384600F00EF897E72560DD
:101F1000DCE75B60FFDE00BFD40100200148FFF773
:101F20000FBF00BFD00100200148FFF70ABF00BF6C
:101F3000D00100209368013B002B10B4936008DAB5
:101F40009469A34201DB0A2903D15DF8044B00F038
:101F500073BB1368581C1060197008465DF8044B79
:101F60007047F8B506460F461446D518AC4201D165
:101F7000002007E014F8011B3A463046FFF7DAFF6D
:101F8000431CF3D1F8BD00002DE9F04F0D469DB084
:101F900014469846064618B1036A0BB9FFF7CCFD04
:101FA0006B6ED90705D4AB899A0502D4A86DFFF7EB
:101FB000C7FEAB891B0701D52B699BB92946304663
:101FC00000F078FB70B16B6EDC0704D54FF0FF308A
:101FD0001DB0BDE8F08FAB899805F7D4A86DFFF769
:101FE000B0FEF3E70023099320238DF82930CDF8C4
:101FF0000C803023DFF8B0818DF82A304FF00109D2
:1020000023469A4613F8012B0AB1252AF9D1BAEBD7
:10201000040B0BD05B46224629463046FFF7A1FF52
:10202000013000F0A980099A5A4409929AF80030C8
:10203000002B00F0A18000234FF0FF32CDE90523F3
:102040000AF1010A049307938DF853301A9354460A
:10205000052214F8011B5448FEF7C2F8049AD8B9B7
:10206000D10644BF20238DF85330130744BF2B23E0
:102070008DF853309AF800302A2B15D0079A544621
:1020800000204FF00A0C214611F8013B303B092B90
:102090004DD9B0B1079214E0A0EB080309FA03F39D
:1020A00013430493A246D2E7039B191D1B680391B7
:1020B000002BBBBF5B4242F0020207930793B8BFFD
:1020C000049223782E2B0CD163782A2B34D1039BD6
:1020D0001A1D1B680392002BB8BF4FF0FF33023468
:1020E0000593DFF8D4A0217803225046FEF778F854
:1020F00038B1049BA0EB0A00402282401343013414
:10210000049314F8011B29488DF828100622FEF7C5
:1021100067F800283FD0264B1BBB039B073323F0F7
:10212000070308330393099B3B44099368E70CFBBF
:1021300002320C460120A6E700230134059319461C
:102140004FF00A0C204610F8012B303A092A03D927
:10215000002BC6D00591C4E70CFB012104460123E6
:10216000F0E703AB00932A46124B04A93046AFF3C5
:1021700000800746781CD6D16B6ED90705D4AB8991
:102180009A0502D4A86DFFF7DCFDAB895B063FF52D
:102190001DAF09981CE703AB00932A46054B04A921
:1021A000304600F079F8E4E7C2280008CC2800089F
:1021B00000000000631F0008C82800082DE9F04750
:1021C000164699468A680B69DDF820809342B8BFAD
:1021D0001346336091F8432007460C460AB1013399
:1021E00033602368990642BF336802333360256841
:1021F00015F0060506D104F1190AE36832689B1A46
:10220000AB4226DC94F84320131E226818BF01233A
:1022100092062BD404F1430249463846C0470130A8
:102220001ED02368226903F00603042B02BFE56871
:102230003368ED1AA3680CBF25EAE57500259342C3
:10224000C4BF9B1AED1800261A34B5421AD10020DB
:1022500008E00123524649463846C047013003D1C1
:102260004FF0FF30BDE8F0870135C6E7E1185A1C92
:10227000302081F84300224494F8451082F843103E
:102280000233C7E70123224649463846C04701309A
:10229000E6D00136D9E700002DE9FF470F7E0C9DFF
:1022A000782F914680460C469A4601F1430207D8A2
:1022B000622F0AD8002F00F0D480582F00F0C08081
:1022C00004F1420584F842703AE0A7F16303152B4C
:1022D000F6D801A151F823F0312300084523000866
:1022E000C1220008C1220008C1220008C122000842
:1022F00045230008C1220008C1220008C1220008AD
:10230000C1220008492400087123000803240008A2
:10231000C1220008C12200086B240008C122000865
:1023200071230008C1220008C12200080B24000804
:102330002B681A1D1B682A6004F1420584F842309C
:1023400001239FE020682B68070603F10401296040
:1023500001D51E6803E04606FBD5B3F90060002EE8
:1023600003DA2D23764284F843305A480A2312E0D8
:102370002B682068191D2960050601D51E6802E03A
:102380004106FBD51E8853486F2F0CBF08230A2334
:10239000002184F843106568A560002DA2BF216864
:1023A00021F0040121600EB9002D4BD01546B6FB7B
:1023B000F3F103FB1167C75D05F8017D3746BB42AA
:1023C0000E46F4D9082B0BD12368DE0708D5236904
:1023D00061689942DEBF302305F8013C05F1FF3505
:1023E000521B2261CDF800A04B4603AA214640466D
:1023F000FFF7E4FE01304AD14FF0FF3004B0BDE8F2
:10240000F087236843F0200323603348782784F85B
:102410004570236829681F0651F8046B02D45F06D3
:1024200048BFB6B2DF0748BF43F02003296048BF6A
:1024300023601EB9236823F0200323601023A7E73D
:102440002448E4E71546BDE72B6826686169181D36
:10245000286035061B6801D5196002E07006FBD5BF
:102460001980002323611546BCE72B681A1D2A60DA
:102470001D68626800212846FDF7B2FE08B1401BC6
:10248000606063682361002384F84330AAE723690E
:102490002A4649464046D0470130ADD023689B07C5
:1024A00013D4E068039B9842B8BF1846A6E70123FF
:1024B000324649464046D04701309DD00135E36859
:1024C00003995B1AAB42F2DCEBE7002504F1190635
:1024D000F5E700BFD3280008E42800088A892DE921
:1024E000F041054610070C4658D44B68002B05DC1C
:1024F0000B6C002B02DC0020BDE8F081E66A002EA8
:10250000F9D0002312F480522F68216A2B6032D058
:10251000606DA3895A0705D56368C01A636B0BB158
:10252000236CC01A00230246E66A216A2846B04797
:10253000431CA38906D129681D292BD8294A0A41A1
:10254000D60727D400226260D9042269226004D50C
:10255000421C01D12B6803B96065616B2F600029B3
:10256000C9D004F14403994202D02846FFF7EAFBA0
:1025700000206063C0E701232846B047411CC8D152
:102580002B68002BC5D01D2B01D0162B01D12F603D
:10259000B1E7A38943F04003A381ADE70F69002FA2
:1025A000A9D093070E6808BF4B690F6018BF0023BE
:1025B000A6EB07088B60B8F1000F9CDD216AA66AC4
:1025C00043463A462846B047002806DCA38943F034
:1025D0004003A3814FF0FF308EE70744A8EB0008CB
:1025E000E9E700BFFEFFBFDF38B50B6905460C46C3
:1025F00013B90025284638BD18B1036A0BB9FFF797
:102600009BFAB4F90C30002BF3D0626ED00704D4DF
:10261000990502D4A06DFFF793FB28462146FFF7EA
:102620005DFF636EDA070546E4D4A3899B05E1D418
:10263000A06DFFF786FBDDE7F8B50E4614460546AC
:1026400018B1036A0BB9FFF777FAA369A360A389EE
:102650001A0725D523691BB323682269981A636971
:10266000F6B28342374604DC21462846FFF7BCFF1A
:10267000E0B9A368013BA36023685A1C22601E7066
:102680006269431C9A4204D0A389DB0706D50A2E4F
:1026900004D121462846FFF7A7FF38B93846F8BDD0
:1026A0002146284600F006F80028D5D04FF0FF3725
:1026B000F4E7000038B52A4B054618680C4618B1F7
:1026C000036A0BB9FFF738FAA389B4F90C2018078D
:1026D00022D4D90607D409232B6042F04003A381FA
:1026E0004FF0FF3034E0580712D5616B41B104F16F
:1026F0004403994202D02846FFF724FB002363637A
:10270000A38923F02403A38100236360236923604A
:10271000A38943F00803A38123694BB9A38903F478
:102720002073B3F5007F03D02146284600F050F80F
:10273000A089B4F90C2010F001030AD00023A36093
:1027400063695B42A361236943B910F08000C4D17F
:1027500038BD810758BF6369A360F4E70020F7E73D
:102760006800002038B5064D0023044608462B605B
:10277000FFF7E2F8431C02D12B6803B1236038BD98
:10278000CC01002070B50C46B1F90E10002996B0AE
:1027900015461E460DDAA38913F0800F4FF0000195
:1027A0000CBF4FF480634023002031602B6016B0D3
:1027B00070BD6A4600F048F80028ECDB019901F48E
:1027C0007041A1F50053594259414FF48063EBE742
:1027D0008B8973B59D0706460C4607D504F1470360
:1027E000236023610123636102B070BD01AB6A46BF
:1027F000FFF7C8FF009905463046FFF70FFB48B9C1
:10280000B4F90C309A05EFD423F0030343F002032C
:10281000A381E3E7A389206043F08003A381009BA9
:102820006361019B20615BB1B4F90E10304600F08A
:102830001DF828B1A38923F0030343F00103A3810A
:10284000A3891D43A581CFE738B5074D0023044672
:10285000084611462B60FFF747F8431C02D12B684E
:1028600003B1236038BD00BFCC01002038B5064D50
:102870000023044608462B60FFF746F8431C02D1AC
:102880002B6803B1236038BDCC010020F8B500BF30
:10289000F8BC08BC9E467047F8B500BFF8BC08BC41
:0428A0009E46704799
:1028A400696E7661696C642062757300496E766145
:1028B400696C642062757320696E70757400232DD1
:1028C400302B2000686C4C00656667454647003035
:1028D4003132333435363738394142434445460082
:1028E4003031323334353637383961626364656682
:0428F40000000000E0
:0428F800C50100080E
:0428FC00A10100082E
:10290000650B0102030405060708090A010000001F
:102910000000000003000000900000200000000004
:1029200090000020F800002060010020000000005E
:102930000000000000000000000000000000000097
:102940000000000000000000000000000000000087
:102950000000000000000000000000000000000077
:0C29600000000000000000001C0000202F
:04000005080019C90D
:00000001FF
